{
  "contractName": "KYCListedRole",
  "abi": [
    {
      "constant": true,
      "inputs": [
        {
          "name": "account",
          "type": "address"
        }
      ],
      "name": "isKYCAdmin",
      "outputs": [
        {
          "name": "",
          "type": "bool"
        }
      ],
      "payable": false,
      "stateMutability": "view",
      "type": "function"
    },
    {
      "constant": false,
      "inputs": [],
      "name": "renounceKYCAdmin",
      "outputs": [],
      "payable": false,
      "stateMutability": "nonpayable",
      "type": "function"
    },
    {
      "constant": false,
      "inputs": [
        {
          "name": "account",
          "type": "address"
        }
      ],
      "name": "addKYCAdmin",
      "outputs": [],
      "payable": false,
      "stateMutability": "nonpayable",
      "type": "function"
    },
    {
      "constant": false,
      "inputs": [
        {
          "name": "account",
          "type": "address"
        }
      ],
      "name": "removeKYCAdmin",
      "outputs": [],
      "payable": false,
      "stateMutability": "nonpayable",
      "type": "function"
    },
    {
      "anonymous": false,
      "inputs": [
        {
          "indexed": true,
          "name": "account",
          "type": "address"
        }
      ],
      "name": "KYClistedAdded",
      "type": "event"
    },
    {
      "anonymous": false,
      "inputs": [
        {
          "indexed": true,
          "name": "account",
          "type": "address"
        }
      ],
      "name": "KYClistedRemoved",
      "type": "event"
    },
    {
      "anonymous": false,
      "inputs": [
        {
          "indexed": true,
          "name": "account",
          "type": "address"
        }
      ],
      "name": "KYCAdminAdded",
      "type": "event"
    },
    {
      "anonymous": false,
      "inputs": [
        {
          "indexed": true,
          "name": "account",
          "type": "address"
        }
      ],
      "name": "KYCAdminRemoved",
      "type": "event"
    },
    {
      "constant": true,
      "inputs": [
        {
          "name": "account",
          "type": "address"
        }
      ],
      "name": "isKYClisted",
      "outputs": [
        {
          "name": "",
          "type": "bool"
        }
      ],
      "payable": false,
      "stateMutability": "view",
      "type": "function"
    },
    {
      "constant": false,
      "inputs": [
        {
          "name": "account",
          "type": "address"
        }
      ],
      "name": "addKYClisted",
      "outputs": [],
      "payable": false,
      "stateMutability": "nonpayable",
      "type": "function"
    },
    {
      "constant": false,
      "inputs": [
        {
          "name": "account",
          "type": "address"
        }
      ],
      "name": "removeKYClisted",
      "outputs": [],
      "payable": false,
      "stateMutability": "nonpayable",
      "type": "function"
    },
    {
      "constant": false,
      "inputs": [],
      "name": "renounceKYClisted",
      "outputs": [],
      "payable": false,
      "stateMutability": "nonpayable",
      "type": "function"
    }
  ],
  "bytecode": "0x60806040526100133361001860201b60201c565b6100ee565b61003081600061006760201b6103d01790919060201c565b6040516001600160a01b038216907f6ef188d34b8fac4126790bd81059831348a92504fa4f99a97c9958a1749c63bc90600090a250565b6001600160a01b03811661007a57600080fd5b61008a82826100b960201b60201c565b1561009457600080fd5b6001600160a01b0316600090815260209190915260409020805460ff19166001179055565b60006001600160a01b0382166100ce57600080fd5b506001600160a01b03166000908152602091909152604090205460ff1690565b610448806100fd6000396000f3fe608060405234801561001057600080fd5b50600436106100885760003560e01c80637696f4161161005b5780637696f416146100ff5780638fd6000414610125578063a2d5027a1461014b578063d92a6cf61461017157610088565b806312f253431461008d5780631548dbc8146100c75780632c101922146100d15780635b4e3f3d146100f7575b600080fd5b6100b3600480360360208110156100a357600080fd5b50356001600160a01b0316610197565b604080519115158252519081900360200190f35b6100cf6101af565b005b6100cf600480360360208110156100e757600080fd5b50356001600160a01b03166101ba565b6100cf6101d8565b6100cf6004803603602081101561011557600080fd5b50356001600160a01b03166101e1565b6100cf6004803603602081101561013b57600080fd5b50356001600160a01b03166101fc565b6100b36004803603602081101561016157600080fd5b50356001600160a01b0316610217565b6100cf6004803603602081101561018757600080fd5b50356001600160a01b031661022a565b60006101a9818363ffffffff61023316565b92915050565b6101b833610268565b565b6101c333610197565b6101cc57600080fd5b6101d5816102b0565b50565b6101b8336102f8565b6101ea33610197565b6101f357600080fd5b6101d5816102f8565b61020533610197565b61020e57600080fd5b6101d581610340565b60006101a960018363ffffffff61023316565b6101d581610268565b60006001600160a01b03821661024857600080fd5b506001600160a01b03166000908152602091909152604090205460ff1690565b61027960008263ffffffff61038816565b6040516001600160a01b038216907fe989c3ea74e8447b86355ca10e7b910a5ea9931330517c33e3002727f5e95ee890600090a250565b6102c160018263ffffffff6103d016565b6040516001600160a01b038216907f5a85c934d044d4af54e45ef3efa70919b2301fe806a7b570e09d7e0f90a4445a90600090a250565b61030960018263ffffffff61038816565b6040516001600160a01b038216907fbc6a411073357cff5bee0c71e7722c8fd47b5a40591adcedeaac84bd10c0736890600090a250565b61035160008263ffffffff6103d016565b6040516001600160a01b038216907f6ef188d34b8fac4126790bd81059831348a92504fa4f99a97c9958a1749c63bc90600090a250565b6001600160a01b03811661039b57600080fd5b6103a58282610233565b6103ae57600080fd5b6001600160a01b0316600090815260209190915260409020805460ff19169055565b6001600160a01b0381166103e357600080fd5b6103ed8282610233565b156103f757600080fd5b6001600160a01b0316600090815260209190915260409020805460ff1916600117905556fea165627a7a72305820c470f95b0a8db368d52018969af486f29ba2d225cac0dd35c364f99fcc7579d90029",
  "source": "pragma solidity ^0.5.7;\r\n\r\nimport \"openzeppelin-solidity/contracts/access/Roles.sol\";\r\nimport \"./KYCAdminRole.sol\";\r\n\r\n/**\r\n * @title KYCListedRole\r\n * @dev KYCListed accounts have been approved by a KYCAdmin. This role is special in that the only accounts that can add it are KYCAdmins (who can also remove\r\n * it), and not KYCListed themselves.\r\n */\r\ncontract KYCListedRole is KYCAdminRole {\r\n    using Roles for Roles.Role;\r\n\r\n    event KYClistedAdded(address indexed account);\r\n    event KYClistedRemoved(address indexed account);\r\n\r\n    Roles.Role private _kyclisteds;\r\n\r\n    modifier onlyKYClisted() {\r\n        require(isKYClisted(msg.sender));\r\n        _;\r\n    }\r\n\r\n    function isKYClisted(address account) public view returns (bool) {\r\n        return _kyclisteds.has(account);\r\n    }\r\n\r\n    function addKYClisted(address account) public onlyKYCAdmin {\r\n        _addKYClisted(account);\r\n    }\r\n\r\n    function removeKYClisted(address account) public onlyKYCAdmin {\r\n        _removeKYClisted(account);\r\n    }\r\n\r\n    function renounceKYClisted() public {\r\n        _removeKYClisted(msg.sender);\r\n    }\r\n\r\n    function _addKYClisted(address account) internal {\r\n        _kyclisteds.add(account);\r\n        emit KYClistedAdded(account);\r\n    }\r\n\r\n    function _removeKYClisted(address account) internal {\r\n        _kyclisteds.remove(account);\r\n        emit KYClistedRemoved(account);\r\n    }\r\n}\r\n",
  "sourcePath": "C:\\Users\\Noam\\BCS\\stellero\\Dev\\StellerroToken\\contracts\\KYCListedRole.sol",
  "compiler": {
    "name": "solc",
    "version": "0.5.8+commit.23d335f2.Emscripten.clang"
  },
  "schemaVersion": "3.0.11",
  "updatedAt": "2019-07-02T09:23:09.668Z",
  "devdoc": {
    "details": "KYCListed accounts have been approved by a KYCAdmin. This role is special in that the only accounts that can add it are KYCAdmins (who can also remove\r it), and not KYCListed themselves.\r",
    "methods": {},
    "title": "KYCListedRole\r"
  },
  "userdoc": {
    "methods": {}
  }
}