{
  "contractName": "StellerroToken",
  "abi": [
    {
      "constant": true,
      "inputs": [],
      "name": "mintingFinished",
      "outputs": [
        {
          "name": "",
          "type": "bool"
        }
      ],
      "payable": false,
      "stateMutability": "view",
      "type": "function"
    },
    {
      "constant": true,
      "inputs": [],
      "name": "name",
      "outputs": [
        {
          "name": "",
          "type": "string"
        }
      ],
      "payable": false,
      "stateMutability": "view",
      "type": "function"
    },
    {
      "constant": false,
      "inputs": [
        {
          "name": "spender",
          "type": "address"
        },
        {
          "name": "value",
          "type": "uint256"
        }
      ],
      "name": "approve",
      "outputs": [
        {
          "name": "",
          "type": "bool"
        }
      ],
      "payable": false,
      "stateMutability": "nonpayable",
      "type": "function"
    },
    {
      "constant": true,
      "inputs": [
        {
          "name": "account",
          "type": "address"
        }
      ],
      "name": "isKYCAdmin",
      "outputs": [
        {
          "name": "",
          "type": "bool"
        }
      ],
      "payable": false,
      "stateMutability": "view",
      "type": "function"
    },
    {
      "constant": false,
      "inputs": [],
      "name": "renounceKYCAdmin",
      "outputs": [],
      "payable": false,
      "stateMutability": "nonpayable",
      "type": "function"
    },
    {
      "constant": true,
      "inputs": [],
      "name": "totalSupply",
      "outputs": [
        {
          "name": "",
          "type": "uint256"
        }
      ],
      "payable": false,
      "stateMutability": "view",
      "type": "function"
    },
    {
      "constant": false,
      "inputs": [
        {
          "name": "from",
          "type": "address"
        },
        {
          "name": "to",
          "type": "address"
        },
        {
          "name": "value",
          "type": "uint256"
        }
      ],
      "name": "transferFrom",
      "outputs": [
        {
          "name": "",
          "type": "bool"
        }
      ],
      "payable": false,
      "stateMutability": "nonpayable",
      "type": "function"
    },
    {
      "constant": false,
      "inputs": [
        {
          "name": "account",
          "type": "address"
        }
      ],
      "name": "addKYClisted",
      "outputs": [],
      "payable": false,
      "stateMutability": "nonpayable",
      "type": "function"
    },
    {
      "constant": true,
      "inputs": [],
      "name": "decimals",
      "outputs": [
        {
          "name": "",
          "type": "uint8"
        }
      ],
      "payable": false,
      "stateMutability": "view",
      "type": "function"
    },
    {
      "constant": true,
      "inputs": [],
      "name": "cap",
      "outputs": [
        {
          "name": "",
          "type": "uint256"
        }
      ],
      "payable": false,
      "stateMutability": "view",
      "type": "function"
    },
    {
      "constant": false,
      "inputs": [
        {
          "name": "spender",
          "type": "address"
        },
        {
          "name": "addedValue",
          "type": "uint256"
        }
      ],
      "name": "increaseAllowance",
      "outputs": [
        {
          "name": "",
          "type": "bool"
        }
      ],
      "payable": false,
      "stateMutability": "nonpayable",
      "type": "function"
    },
    {
      "constant": false,
      "inputs": [],
      "name": "unpause",
      "outputs": [],
      "payable": false,
      "stateMutability": "nonpayable",
      "type": "function"
    },
    {
      "constant": false,
      "inputs": [
        {
          "name": "to",
          "type": "address"
        },
        {
          "name": "value",
          "type": "uint256"
        }
      ],
      "name": "mint",
      "outputs": [
        {
          "name": "",
          "type": "bool"
        }
      ],
      "payable": false,
      "stateMutability": "nonpayable",
      "type": "function"
    },
    {
      "constant": false,
      "inputs": [
        {
          "name": "value",
          "type": "uint256"
        }
      ],
      "name": "burn",
      "outputs": [],
      "payable": false,
      "stateMutability": "nonpayable",
      "type": "function"
    },
    {
      "constant": true,
      "inputs": [
        {
          "name": "account",
          "type": "address"
        }
      ],
      "name": "isPauser",
      "outputs": [
        {
          "name": "",
          "type": "bool"
        }
      ],
      "payable": false,
      "stateMutability": "view",
      "type": "function"
    },
    {
      "constant": false,
      "inputs": [],
      "name": "renounceKYClisted",
      "outputs": [],
      "payable": false,
      "stateMutability": "nonpayable",
      "type": "function"
    },
    {
      "constant": true,
      "inputs": [],
      "name": "paused",
      "outputs": [
        {
          "name": "",
          "type": "bool"
        }
      ],
      "payable": false,
      "stateMutability": "view",
      "type": "function"
    },
    {
      "constant": false,
      "inputs": [],
      "name": "renouncePauser",
      "outputs": [],
      "payable": false,
      "stateMutability": "nonpayable",
      "type": "function"
    },
    {
      "constant": true,
      "inputs": [
        {
          "name": "owner",
          "type": "address"
        }
      ],
      "name": "balanceOf",
      "outputs": [
        {
          "name": "",
          "type": "uint256"
        }
      ],
      "payable": false,
      "stateMutability": "view",
      "type": "function"
    },
    {
      "constant": false,
      "inputs": [],
      "name": "renounceOwnership",
      "outputs": [],
      "payable": false,
      "stateMutability": "nonpayable",
      "type": "function"
    },
    {
      "constant": false,
      "inputs": [
        {
          "name": "account",
          "type": "address"
        }
      ],
      "name": "removeKYClisted",
      "outputs": [],
      "payable": false,
      "stateMutability": "nonpayable",
      "type": "function"
    },
    {
      "constant": false,
      "inputs": [
        {
          "name": "from",
          "type": "address"
        },
        {
          "name": "value",
          "type": "uint256"
        }
      ],
      "name": "burnFrom",
      "outputs": [],
      "payable": false,
      "stateMutability": "nonpayable",
      "type": "function"
    },
    {
      "constant": false,
      "inputs": [],
      "name": "finishMinting",
      "outputs": [
        {
          "name": "",
          "type": "bool"
        }
      ],
      "payable": false,
      "stateMutability": "nonpayable",
      "type": "function"
    },
    {
      "constant": false,
      "inputs": [
        {
          "name": "account",
          "type": "address"
        }
      ],
      "name": "addPauser",
      "outputs": [],
      "payable": false,
      "stateMutability": "nonpayable",
      "type": "function"
    },
    {
      "constant": false,
      "inputs": [],
      "name": "pause",
      "outputs": [],
      "payable": false,
      "stateMutability": "nonpayable",
      "type": "function"
    },
    {
      "constant": false,
      "inputs": [
        {
          "name": "to",
          "type": "address"
        },
        {
          "name": "value",
          "type": "uint256"
        }
      ],
      "name": "approveAndMint",
      "outputs": [
        {
          "name": "",
          "type": "bool"
        }
      ],
      "payable": false,
      "stateMutability": "nonpayable",
      "type": "function"
    },
    {
      "constant": true,
      "inputs": [],
      "name": "owner",
      "outputs": [
        {
          "name": "",
          "type": "address"
        }
      ],
      "payable": false,
      "stateMutability": "view",
      "type": "function"
    },
    {
      "constant": true,
      "inputs": [],
      "name": "isOwner",
      "outputs": [
        {
          "name": "",
          "type": "bool"
        }
      ],
      "payable": false,
      "stateMutability": "view",
      "type": "function"
    },
    {
      "constant": false,
      "inputs": [
        {
          "name": "account",
          "type": "address"
        }
      ],
      "name": "addKYCAdmin",
      "outputs": [],
      "payable": false,
      "stateMutability": "nonpayable",
      "type": "function"
    },
    {
      "constant": true,
      "inputs": [],
      "name": "symbol",
      "outputs": [
        {
          "name": "",
          "type": "string"
        }
      ],
      "payable": false,
      "stateMutability": "view",
      "type": "function"
    },
    {
      "constant": false,
      "inputs": [
        {
          "name": "account",
          "type": "address"
        }
      ],
      "name": "addMinter",
      "outputs": [],
      "payable": false,
      "stateMutability": "nonpayable",
      "type": "function"
    },
    {
      "constant": false,
      "inputs": [],
      "name": "renounceMinter",
      "outputs": [],
      "payable": false,
      "stateMutability": "nonpayable",
      "type": "function"
    },
    {
      "constant": true,
      "inputs": [
        {
          "name": "account",
          "type": "address"
        }
      ],
      "name": "isKYClisted",
      "outputs": [
        {
          "name": "",
          "type": "bool"
        }
      ],
      "payable": false,
      "stateMutability": "view",
      "type": "function"
    },
    {
      "constant": false,
      "inputs": [
        {
          "name": "spender",
          "type": "address"
        },
        {
          "name": "subtractedValue",
          "type": "uint256"
        }
      ],
      "name": "decreaseAllowance",
      "outputs": [
        {
          "name": "",
          "type": "bool"
        }
      ],
      "payable": false,
      "stateMutability": "nonpayable",
      "type": "function"
    },
    {
      "constant": false,
      "inputs": [
        {
          "name": "to",
          "type": "address"
        },
        {
          "name": "value",
          "type": "uint256"
        }
      ],
      "name": "transfer",
      "outputs": [
        {
          "name": "",
          "type": "bool"
        }
      ],
      "payable": false,
      "stateMutability": "nonpayable",
      "type": "function"
    },
    {
      "constant": true,
      "inputs": [
        {
          "name": "account",
          "type": "address"
        }
      ],
      "name": "isMinter",
      "outputs": [
        {
          "name": "",
          "type": "bool"
        }
      ],
      "payable": false,
      "stateMutability": "view",
      "type": "function"
    },
    {
      "constant": true,
      "inputs": [
        {
          "name": "investorAddress",
          "type": "address"
        }
      ],
      "name": "isFreeInvestor",
      "outputs": [
        {
          "name": "",
          "type": "bool"
        }
      ],
      "payable": false,
      "stateMutability": "view",
      "type": "function"
    },
    {
      "constant": false,
      "inputs": [
        {
          "name": "from",
          "type": "address"
        },
        {
          "name": "to",
          "type": "address"
        }
      ],
      "name": "restoreTokens",
      "outputs": [
        {
          "name": "",
          "type": "bool"
        }
      ],
      "payable": false,
      "stateMutability": "nonpayable",
      "type": "function"
    },
    {
      "constant": false,
      "inputs": [
        {
          "name": "account",
          "type": "address"
        }
      ],
      "name": "removeKYCAdmin",
      "outputs": [],
      "payable": false,
      "stateMutability": "nonpayable",
      "type": "function"
    },
    {
      "constant": true,
      "inputs": [
        {
          "name": "owner",
          "type": "address"
        },
        {
          "name": "spender",
          "type": "address"
        }
      ],
      "name": "allowance",
      "outputs": [
        {
          "name": "",
          "type": "uint256"
        }
      ],
      "payable": false,
      "stateMutability": "view",
      "type": "function"
    },
    {
      "constant": false,
      "inputs": [
        {
          "name": "newOwner",
          "type": "address"
        }
      ],
      "name": "transferOwnership",
      "outputs": [],
      "payable": false,
      "stateMutability": "nonpayable",
      "type": "function"
    },
    {
      "inputs": [
        {
          "name": "cap",
          "type": "uint256"
        },
        {
          "name": "name",
          "type": "string"
        },
        {
          "name": "symbol",
          "type": "string"
        },
        {
          "name": "decimals",
          "type": "uint8"
        }
      ],
      "payable": false,
      "stateMutability": "nonpayable",
      "type": "constructor"
    },
    {
      "anonymous": false,
      "inputs": [],
      "name": "MintFinished",
      "type": "event"
    },
    {
      "anonymous": false,
      "inputs": [
        {
          "indexed": true,
          "name": "from",
          "type": "address"
        },
        {
          "indexed": true,
          "name": "to",
          "type": "address"
        },
        {
          "indexed": false,
          "name": "value",
          "type": "uint256"
        }
      ],
      "name": "Restore",
      "type": "event"
    },
    {
      "anonymous": false,
      "inputs": [
        {
          "indexed": false,
          "name": "account",
          "type": "address"
        }
      ],
      "name": "Paused",
      "type": "event"
    },
    {
      "anonymous": false,
      "inputs": [
        {
          "indexed": false,
          "name": "account",
          "type": "address"
        }
      ],
      "name": "Unpaused",
      "type": "event"
    },
    {
      "anonymous": false,
      "inputs": [
        {
          "indexed": true,
          "name": "account",
          "type": "address"
        }
      ],
      "name": "PauserAdded",
      "type": "event"
    },
    {
      "anonymous": false,
      "inputs": [
        {
          "indexed": true,
          "name": "account",
          "type": "address"
        }
      ],
      "name": "PauserRemoved",
      "type": "event"
    },
    {
      "anonymous": false,
      "inputs": [
        {
          "indexed": true,
          "name": "account",
          "type": "address"
        }
      ],
      "name": "MinterAdded",
      "type": "event"
    },
    {
      "anonymous": false,
      "inputs": [
        {
          "indexed": true,
          "name": "account",
          "type": "address"
        }
      ],
      "name": "MinterRemoved",
      "type": "event"
    },
    {
      "anonymous": false,
      "inputs": [
        {
          "indexed": true,
          "name": "from",
          "type": "address"
        },
        {
          "indexed": true,
          "name": "to",
          "type": "address"
        },
        {
          "indexed": false,
          "name": "value",
          "type": "uint256"
        }
      ],
      "name": "Transfer",
      "type": "event"
    },
    {
      "anonymous": false,
      "inputs": [
        {
          "indexed": true,
          "name": "owner",
          "type": "address"
        },
        {
          "indexed": true,
          "name": "spender",
          "type": "address"
        },
        {
          "indexed": false,
          "name": "value",
          "type": "uint256"
        }
      ],
      "name": "Approval",
      "type": "event"
    },
    {
      "anonymous": false,
      "inputs": [
        {
          "indexed": true,
          "name": "account",
          "type": "address"
        }
      ],
      "name": "KYClistedAdded",
      "type": "event"
    },
    {
      "anonymous": false,
      "inputs": [
        {
          "indexed": true,
          "name": "account",
          "type": "address"
        }
      ],
      "name": "KYClistedRemoved",
      "type": "event"
    },
    {
      "anonymous": false,
      "inputs": [
        {
          "indexed": true,
          "name": "account",
          "type": "address"
        }
      ],
      "name": "KYCAdminAdded",
      "type": "event"
    },
    {
      "anonymous": false,
      "inputs": [
        {
          "indexed": true,
          "name": "account",
          "type": "address"
        }
      ],
      "name": "KYCAdminRemoved",
      "type": "event"
    },
    {
      "anonymous": false,
      "inputs": [
        {
          "indexed": true,
          "name": "previousOwner",
          "type": "address"
        },
        {
          "indexed": true,
          "name": "newOwner",
          "type": "address"
        }
      ],
      "name": "OwnershipTransferred",
      "type": "event"
    }
  ],
  "bytecode": "0x60806040526009805461ff00191690553480156200001c57600080fd5b5060405162001c7d38038062001c7d833981018060405260808110156200004257600080fd5b8151602083018051919392830192916401000000008111156200006457600080fd5b820160208101848111156200007857600080fd5b81516401000000008111828201871017156200009357600080fd5b50509291906020018051640100000000811115620000b057600080fd5b82016020810184811115620000c457600080fd5b8151640100000000811182820187101715620000df57600080fd5b5050602090910151600080546001600160a01b0319163317808255604051939550919350859285928592899283926001600160a01b031691907f8be0079c531659141344cd1fd0a4f28419497f9722a3daafe3b4186f6b6457e0908290a36200014e33620001da60201b60201c565b6200015f336200022c60201b60201c565b600081116200016d57600080fd5b60075562000182336200027e602090811b901c565b506009805460ff191690558251620001a290600a9060208601906200035c565b508151620001b890600b9060208501906200035c565b50600c805460ff191660ff929092169190911790555062000401945050505050565b620001f5816001620002d060201b6200150d1790919060201c565b6040516001600160a01b038216907f6ef188d34b8fac4126790bd81059831348a92504fa4f99a97c9958a1749c63bc90600090a250565b62000247816006620002d060201b6200150d1790919060201c565b6040516001600160a01b038216907f6ae172837ea30b801fbfcdd4108aa1d5bf8ff775444fd70256b44e6bf3dfc3f690600090a250565b62000299816008620002d060201b6200150d1790919060201c565b6040516001600160a01b038216907f6719d08c1888103bea251a4ed56406bd0c3e69723c8a1686e017e7bbe159b6f890600090a250565b6001600160a01b038116620002e457600080fd5b620002f682826200032660201b60201c565b156200030157600080fd5b6001600160a01b0316600090815260209190915260409020805460ff19166001179055565b60006001600160a01b0382166200033c57600080fd5b506001600160a01b03166000908152602091909152604090205460ff1690565b828054600181600116156101000203166002900490600052602060002090601f016020900481019282601f106200039f57805160ff1916838001178555620003cf565b82800160010185558215620003cf579182015b82811115620003cf578251825591602001919060010190620003b2565b50620003dd929150620003e1565b5090565b620003fe91905b80821115620003dd5760008155600101620003e8565b90565b61186c80620004116000396000f3fe608060405234801561001057600080fd5b50600436106102535760003560e01c80637696f41611610146578063983b2d56116100c3578063aa271e1a11610087578063aa271e1a1461068c578063c2282f77146106b2578063c6416f4c146106d8578063d92a6cf614610706578063dd62ed3e1461072c578063f2fde38b1461075a57610253565b8063983b2d56146105e05780639865027514610606578063a2d5027a1461060e578063a457c2d714610634578063a9059cbb1461066057610253565b80638aa0ddc81161010a5780638aa0ddc81461055a5780638da5cb5b146105865780638f32d59b146105aa5780638fd60004146105b257806395d89b41146105d857610253565b80637696f416146104d257806379cc6790146104f85780637d64bcb41461052457806382dc1ec41461052c5780638456cb591461055257610253565b806339509351116101d45780635b4e3f3d116101985780635b4e3f3d1461048c5780635c975abb146104945780636ef8d66d1461049c57806370a08231146104a4578063715018a6146104ca57610253565b806339509351146103e95780633f4ba83a1461041557806340c10f191461041d57806342966c681461044957806346fbf68e1461046657610253565b806318160ddd1161021b57806318160ddd1461034d57806323b872dd146103675780632c1019221461039d578063313ce567146103c3578063355274ea146103e157610253565b806305d2035b1461025857806306fdde0314610274578063095ea7b3146102f157806312f253431461031d5780631548dbc814610343575b600080fd5b610260610780565b604080519115158252519081900360200190f35b61027c61078e565b6040805160208082528351818301528351919283929083019185019080838360005b838110156102b657818101518382015260200161029e565b50505050905090810190601f1680156102e35780820380516001836020036101000a031916815260200191505b509250505060405180910390f35b6102606004803603604081101561030757600080fd5b506001600160a01b038135169060200135610824565b6102606004803603602081101561033357600080fd5b50356001600160a01b031661088e565b61034b6108a7565b005b6103556108b2565b60408051918252519081900360200190f35b6102606004803603606081101561037d57600080fd5b506001600160a01b038135811691602081013590911690604001356108b8565b61034b600480360360208110156103b357600080fd5b50356001600160a01b0316610980565b6103cb61099e565b6040805160ff9092168252519081900360200190f35b6103556109a7565b610260600480360360408110156103ff57600080fd5b506001600160a01b0381351690602001356109ad565b61034b610a49565b6102606004803603604081101561043357600080fd5b506001600160a01b038135169060200135610aa9565b61034b6004803603602081101561045f57600080fd5b5035610ae6565b6102606004803603602081101561047c57600080fd5b50356001600160a01b0316610b00565b61034b610b13565b610260610b1c565b61034b610b25565b610355600480360360208110156104ba57600080fd5b50356001600160a01b0316610b2e565b61034b610b49565b61034b600480360360208110156104e857600080fd5b50356001600160a01b0316610ba4565b61034b6004803603604081101561050e57600080fd5b506001600160a01b038135169060200135610bbf565b610260610bde565b61034b6004803603602081101561054257600080fd5b50356001600160a01b0316610c44565b61034b610c5f565b6102606004803603604081101561057057600080fd5b506001600160a01b038135169060200135610cc3565b61058e610cf5565b604080516001600160a01b039092168252519081900360200190f35b610260610d04565b61034b600480360360208110156105c857600080fd5b50356001600160a01b0316610d15565b61027c610d2f565b61034b600480360360208110156105f657600080fd5b50356001600160a01b0316610d90565b61034b610dab565b6102606004803603602081101561062457600080fd5b50356001600160a01b0316610db4565b6102606004803603604081101561064a57600080fd5b506001600160a01b038135169060200135610dc7565b6102606004803603604081101561067657600080fd5b506001600160a01b038135169060200135610e10565b610260600480360360208110156106a257600080fd5b50356001600160a01b0316610ed6565b610260600480360360208110156106c857600080fd5b50356001600160a01b0316610ee9565b610260600480360360408110156106ee57600080fd5b506001600160a01b0381358116916020013516610ef4565b61034b6004803603602081101561071c57600080fd5b50356001600160a01b0316610fad565b6103556004803603604081101561074257600080fd5b506001600160a01b0381358116916020013516610fc7565b61034b6004803603602081101561077057600080fd5b50356001600160a01b0316610ff2565b600954610100900460ff1681565b600a8054604080516020601f600260001961010060018816150201909516949094049384018190048102820181019092528281526060939092909183018282801561081a5780601f106107ef5761010080835404028352916020019161081a565b820191906000526020600020905b8154815290600101906020018083116107fd57829003601f168201915b5050505050905090565b60006001600160a01b03831661083957600080fd5b3360008181526004602090815260408083206001600160a01b0388168085529083529281902086905580518681529051929392600080516020611821833981519152929181900390910190a350600192915050565b60006108a160018363ffffffff61100c16565b92915050565b6108b033611041565b565b60055490565b600954600090610100900460ff166108cf57600080fd5b60095460ff16156108df57600080fd5b6108e883611089565b61092657604051600160e51b62461bcd0281526004018080602001828103825260258152602001806117d56025913960400191505060405180910390fd5b61092f84611089565b61096d57604051600160e51b62461bcd0281526004018080602001828103825260278152602001806117fa6027913960400191505060405180910390fd5b610978848484611094565b949350505050565b6109893361088e565b61099257600080fd5b61099b8161114b565b50565b600c5460ff1690565b60075490565b60006001600160a01b0383166109c257600080fd5b3360009081526004602090815260408083206001600160a01b03871684529091529020546109f6908363ffffffff61119316565b3360008181526004602090815260408083206001600160a01b038916808552908352928190208590558051948552519193600080516020611821833981519152929081900390910190a350600192915050565b610a5233610b00565b610a5b57600080fd5b60095460ff16610a6a57600080fd5b6009805460ff191690556040805133815290517f5db9ee0a495bf2e6ff9c91a7834c1ba4fdd244a5e8aa4e537bd38aeae4b073aa9181900360200190a1565b6000610ab433610ed6565b610abd57600080fd5b600954610100900460ff1615610ad257600080fd5b610adc83836111a5565b5060019392505050565b610aee610d04565b610af757600080fd5b61099b816111cc565b60006108a160088363ffffffff61100c16565b6108b0336111d6565b60095460ff1690565b6108b03361121e565b6001600160a01b031660009081526003602052604090205490565b610b51610d04565b610b5a57600080fd5b600080546040516001600160a01b03909116907f8be0079c531659141344cd1fd0a4f28419497f9722a3daafe3b4186f6b6457e0908390a3600080546001600160a01b0319169055565b610bad3361088e565b610bb657600080fd5b61099b816111d6565b610bc7610d04565b610bd057600080fd5b610bda8282611266565b5050565b6000610be8610d04565b610bf157600080fd5b600954610100900460ff1615610c0657600080fd5b6009805461ff0019166101001790556040517fae5184fba832cb2b1f702aca6117b8d265eaf03ad33eb133f19dde0f5920fa0890600090a150600190565b610c4d33610b00565b610c5657600080fd5b61099b81611270565b610c6833610b00565b610c7157600080fd5b60095460ff1615610c8157600080fd5b6009805460ff191660011790556040805133815290517f62e78cea01bee320cd4e420270b5ea74000d11b0c9f74754ebdbfc544b05a2589181900360200190a1565b6000610cce33610ed6565b610cd757600080fd5b600954610100900460ff1615610cec57600080fd5b610ad283610980565b6000546001600160a01b031690565b6000546001600160a01b0316331490565b610d1d610d04565b610d2657600080fd5b61099b816112b8565b600b8054604080516020601f600260001961010060018816150201909516949094049384018190048102820181019092528281526060939092909183018282801561081a5780601f106107ef5761010080835404028352916020019161081a565b610d9933610ed6565b610da257600080fd5b61099b816112d3565b6108b03361131b565b60006108a160028363ffffffff61100c16565b60006001600160a01b038316610ddc57600080fd5b3360009081526004602090815260408083206001600160a01b03871684529091529020546109f6908363ffffffff61136316565b600954600090610100900460ff16610e2757600080fd5b60095460ff1615610e3757600080fd5b610e4083611089565b610e7e57604051600160e51b62461bcd0281526004018080602001828103825260258152602001806117d56025913960400191505060405180910390fd5b610e8733611089565b610ec557604051600160e51b62461bcd0281526004018080602001828103825260278152602001806117fa6027913960400191505060405180910390fd5b610ecf8383611378565b9392505050565b60006108a160068363ffffffff61100c16565b60006108a182610db4565b6000610efe610d04565b610f0757600080fd5b60095460ff1615610f1757600080fd5b6001600160a01b038216610f2a57600080fd5b610f3382610db4565b610f4057610f4082610980565b6000610f4b84610b2e565b9050610f58848483611381565b826001600160a01b0316846001600160a01b03167f8d517738b620ddd4757b2c72628ad2ee2e182d8eadaceb727477e0b661e0afad836040518082815260200191505060405180910390a35060019392505050565b610fb5610d04565b610fbe57600080fd5b61099b8161144e565b6001600160a01b03918216600090815260046020908152604080832093909416825291909152205490565b610ffa610d04565b61100357600080fd5b61099b81611457565b60006001600160a01b03821661102157600080fd5b506001600160a01b03166000908152602091909152604090205460ff1690565b61105260018263ffffffff6114c516565b6040516001600160a01b038216907fe989c3ea74e8447b86355ca10e7b910a5ea9931330517c33e3002727f5e95ee890600090a250565b60006108a182610ee9565b6001600160a01b03831660009081526004602090815260408083203384529091528120546110c8908363ffffffff61136316565b6001600160a01b03851660009081526004602090815260408083203384529091529020556110f7848484611381565b6001600160a01b038416600081815260046020908152604080832033808552908352928190205481519081529051929392600080516020611821833981519152929181900390910190a35060019392505050565b61115c60028263ffffffff61150d16565b6040516001600160a01b038216907f5a85c934d044d4af54e45ef3efa70919b2301fe806a7b570e09d7e0f90a4445a90600090a250565b600082820183811015610ecf57600080fd5b60006111b033610ed6565b6111b957600080fd5b6111c38383611559565b50600192915050565b61099b3382611589565b6111e760028263ffffffff6114c516565b6040516001600160a01b038216907fbc6a411073357cff5bee0c71e7722c8fd47b5a40591adcedeaac84bd10c0736890600090a250565b61122f60088263ffffffff6114c516565b6040516001600160a01b038216907fcd265ebaf09df2871cc7bd4133404a235ba12eff2041bb89d9c714a2621c7c7e90600090a250565b610bda8282611632565b61128160088263ffffffff61150d16565b6040516001600160a01b038216907f6719d08c1888103bea251a4ed56406bd0c3e69723c8a1686e017e7bbe159b6f890600090a250565b6112c13361088e565b6112ca57600080fd5b61099b816116e2565b6112e460068263ffffffff61150d16565b6040516001600160a01b038216907f6ae172837ea30b801fbfcdd4108aa1d5bf8ff775444fd70256b44e6bf3dfc3f690600090a250565b61132c60068263ffffffff6114c516565b6040516001600160a01b038216907fe94479a9f7e1952cc78f2d6baab678adc1b772d936c6583def489e524cb6669290600090a250565b60008282111561137257600080fd5b50900390565b60006111c33384845b6001600160a01b03821661139457600080fd5b6001600160a01b0383166000908152600360205260409020546113bd908263ffffffff61136316565b6001600160a01b0380851660009081526003602052604080822093909355908416815220546113f2908263ffffffff61119316565b6001600160a01b0380841660008181526003602090815260409182902094909455805185815290519193928716927fddf252ad1be2c89b69c2b068fc378daa952ba7f163c4a11628f55a4df523b3ef92918290030190a3505050565b61099b81611041565b6001600160a01b03811661146a57600080fd5b600080546040516001600160a01b03808516939216917f8be0079c531659141344cd1fd0a4f28419497f9722a3daafe3b4186f6b6457e091a3600080546001600160a01b0319166001600160a01b0392909216919091179055565b6001600160a01b0381166114d857600080fd5b6114e2828261100c565b6114eb57600080fd5b6001600160a01b0316600090815260209190915260409020805460ff19169055565b6001600160a01b03811661152057600080fd5b61152a828261100c565b1561153457600080fd5b6001600160a01b0316600090815260209190915260409020805460ff19166001179055565b600754611574826115686108b2565b9063ffffffff61119316565b111561157f57600080fd5b610bda828261172a565b6001600160a01b03821661159c57600080fd5b6005546115af908263ffffffff61136316565b6005556001600160a01b0382166000908152600360205260409020546115db908263ffffffff61136316565b6001600160a01b0383166000818152600360209081526040808320949094558351858152935191937fddf252ad1be2c89b69c2b068fc378daa952ba7f163c4a11628f55a4df523b3ef929081900390910190a35050565b6001600160a01b0382166000908152600460209081526040808320338452909152902054611666908263ffffffff61136316565b6001600160a01b03831660009081526004602090815260408083203384529091529020556116948282611589565b6001600160a01b038216600081815260046020908152604080832033808552908352928190205481519081529051929392600080516020611821833981519152929181900390910190a35050565b6116f360018263ffffffff61150d16565b6040516001600160a01b038216907f6ef188d34b8fac4126790bd81059831348a92504fa4f99a97c9958a1749c63bc90600090a250565b6001600160a01b03821661173d57600080fd5b600554611750908263ffffffff61119316565b6005556001600160a01b03821660009081526003602052604090205461177c908263ffffffff61119316565b6001600160a01b03831660008181526003602090815260408083209490945583518581529351929391927fddf252ad1be2c89b69c2b068fc378daa952ba7f163c4a11628f55a4df523b3ef9281900390910190a3505056fe427579696e6720696e766573746f72206973206e6f7420616c6c6f77656420746f2062757953656c6c696e6720696e766573746f72206973206e6f7420616c6c6f77656420746f2073656c6c8c5be1e5ebec7d5bd14f71427d1e84f3dd0314c0f7b2291e5b200ac8c7c3b925a165627a7a72305820bdd789f2b2749dab410c97c877b52441d8d373cb48e7e4adde07626018e184b10029",
  "source": "pragma solidity ^0.5.7;\n\nimport \"openzeppelin-solidity/contracts/token/ERC20/ERC20Detailed.sol\";\nimport \"./WhiteListToken.sol\";\n\ncontract StellerroToken is WhiteListToken, ERC20Detailed{\n\n    constructor(uint256 cap, string memory name, string memory symbol, uint8 decimals)\n      WhiteListToken(cap)\n      ERC20Detailed(name, symbol, decimals)\n    public {\n    }\n\n}\n",
  "sourcePath": "C:/Users/Noam/BCS/stellero/Dev/StellerroToken/contracts/StellerroToken.sol",
  "compiler": {
    "name": "solc",
    "version": "0.5.8+commit.23d335f2.Emscripten.clang"
  },
  "schemaVersion": "3.0.11",
  "updatedAt": "2019-07-02T09:24:42.066Z",
  "devdoc": {
    "methods": {
      "addKYCAdmin(address)": {
        "params": {
          "account": "the address to add"
        }
      },
      "allowance(address,address)": {
        "details": "Function to check the amount of tokens that an owner allowed to a spender.",
        "params": {
          "owner": "address The address which owns the funds.",
          "spender": "address The address which will spend the funds."
        },
        "return": "A uint256 specifying the amount of tokens still available for the spender."
      },
      "approve(address,uint256)": {
        "details": "Approve the passed address to spend the specified amount of tokens on behalf of msg.sender. Beware that changing an allowance with this method brings the risk that someone may use both the old and the new allowance by unfortunate transaction ordering. One possible solution to mitigate this race condition is to first reduce the spender's allowance to 0 and set the desired value afterwards: https://github.com/ethereum/EIPs/issues/20#issuecomment-263524729",
        "params": {
          "spender": "The address which will spend the funds.",
          "value": "The amount of tokens to be spent."
        }
      },
      "balanceOf(address)": {
        "details": "Gets the balance of the specified address.",
        "params": {
          "owner": "The address to query the balance of."
        },
        "return": "An uint256 representing the amount owned by the passed address."
      },
      "burn(uint256)": {
        "details": "Burns a specific amount of tokens.",
        "params": {
          "value": "The amount of token to be burned."
        }
      },
      "burnFrom(address,uint256)": {
        "details": "Burns a specific amount of tokens from the target address and decrements allowance",
        "params": {
          "from": "address The address which you want to send tokens from",
          "value": "uint256 The amount of token to be burned"
        }
      },
      "cap()": {
        "return": "the cap for the token minting."
      },
      "decimals()": {
        "return": "the number of decimals of the token."
      },
      "decreaseAllowance(address,uint256)": {
        "details": "Decrease the amount of tokens that an owner allowed to a spender. approve should be called when allowed_[_spender] == 0. To decrement allowed value is better to use this function to avoid 2 calls (and wait until the first transaction is mined) From MonolithDAO Token.sol Emits an Approval event.",
        "params": {
          "spender": "The address which will spend the funds.",
          "subtractedValue": "The amount of tokens to decrease the allowance by."
        }
      },
      "finishMinting()": {
        "details": "Function to stop minting new tokens.",
        "return": "True if the operation was successful."
      },
      "increaseAllowance(address,uint256)": {
        "details": "Increase the amount of tokens that an owner allowed to a spender. approve should be called when allowed_[_spender] == 0. To increment allowed value is better to use this function to avoid 2 calls (and wait until the first transaction is mined) From MonolithDAO Token.sol Emits an Approval event.",
        "params": {
          "addedValue": "The amount of tokens to increase the allowance by.",
          "spender": "The address which will spend the funds."
        }
      },
      "isFreeInvestor(address)": {
        "params": {
          "investorAddress": "the investor address"
        }
      },
      "isOwner()": {
        "return": "true if `msg.sender` is the owner of the contract."
      },
      "name()": {
        "return": "the name of the token."
      },
      "owner()": {
        "return": "the address of the owner."
      },
      "pause()": {
        "details": "called by the owner to pause, triggers stopped state"
      },
      "paused()": {
        "return": "true if the contract is paused, false otherwise."
      },
      "removeKYCAdmin(address)": {
        "params": {
          "account": "the address to remove"
        }
      },
      "renounceOwnership()": {
        "details": "Allows the current owner to relinquish control of the contract."
      },
      "restoreTokens(address,address)": {
        "details": "restore tokens from one address to another. to use only in case a user cannot access its token.",
        "params": {
          "from": "address The old user's address",
          "to": "address The new user's address"
        }
      },
      "symbol()": {
        "return": "the symbol of the token."
      },
      "totalSupply()": {
        "details": "Total number of tokens in existence"
      },
      "transfer(address,uint256)": {
        "details": "Transfer token for a specified address",
        "params": {
          "to": "The address to transfer to.",
          "value": "The amount to be transferred."
        }
      },
      "transferFrom(address,address,uint256)": {
        "details": "Transfer tokens from one address to another",
        "params": {
          "from": "address The address which you want to send tokens from",
          "to": "address The address which you want to transfer to",
          "value": "uint256 the amount of tokens to be transferred"
        }
      },
      "transferOwnership(address)": {
        "details": "Allows the current owner to transfer control of the contract to a newOwner.",
        "params": {
          "newOwner": "The address to transfer ownership to."
        }
      },
      "unpause()": {
        "details": "called by the owner to unpause, returns to normal state"
      }
    }
  },
  "userdoc": {
    "methods": {
      "addKYCAdmin(address)": {
        "notice": "Add a kyc admin"
      },
      "isFreeInvestor(address)": {
        "notice": "Check if the investor is KYC approved and also accredited"
      },
      "removeKYCAdmin(address)": {
        "notice": "Remove a kyc admin"
      },
      "renounceOwnership()": {
        "notice": "Renouncing to ownership will leave the contract without an owner. It will not be possible to call the functions with the `onlyOwner` modifier anymore."
      }
    }
  }
}