{
  "contractName": "StellerroESToken",
  "abi": [
    {
      "constant": true,
      "inputs": [],
      "name": "mintingFinished",
      "outputs": [
        {
          "name": "",
          "type": "bool"
        }
      ],
      "payable": false,
      "stateMutability": "view",
      "type": "function"
    },
    {
      "constant": true,
      "inputs": [],
      "name": "name",
      "outputs": [
        {
          "name": "",
          "type": "string"
        }
      ],
      "payable": false,
      "stateMutability": "view",
      "type": "function"
    },
    {
      "constant": false,
      "inputs": [
        {
          "name": "spender",
          "type": "address"
        },
        {
          "name": "value",
          "type": "uint256"
        }
      ],
      "name": "approve",
      "outputs": [
        {
          "name": "",
          "type": "bool"
        }
      ],
      "payable": false,
      "stateMutability": "nonpayable",
      "type": "function"
    },
    {
      "constant": true,
      "inputs": [
        {
          "name": "account",
          "type": "address"
        }
      ],
      "name": "isKYCAdmin",
      "outputs": [
        {
          "name": "",
          "type": "bool"
        }
      ],
      "payable": false,
      "stateMutability": "view",
      "type": "function"
    },
    {
      "constant": false,
      "inputs": [],
      "name": "renounceKYCAdmin",
      "outputs": [],
      "payable": false,
      "stateMutability": "nonpayable",
      "type": "function"
    },
    {
      "constant": true,
      "inputs": [],
      "name": "totalSupply",
      "outputs": [
        {
          "name": "",
          "type": "uint256"
        }
      ],
      "payable": false,
      "stateMutability": "view",
      "type": "function"
    },
    {
      "constant": false,
      "inputs": [
        {
          "name": "from",
          "type": "address"
        },
        {
          "name": "to",
          "type": "address"
        },
        {
          "name": "value",
          "type": "uint256"
        }
      ],
      "name": "transferFrom",
      "outputs": [
        {
          "name": "",
          "type": "bool"
        }
      ],
      "payable": false,
      "stateMutability": "nonpayable",
      "type": "function"
    },
    {
      "constant": false,
      "inputs": [
        {
          "name": "account",
          "type": "address"
        }
      ],
      "name": "addKYClisted",
      "outputs": [],
      "payable": false,
      "stateMutability": "nonpayable",
      "type": "function"
    },
    {
      "constant": true,
      "inputs": [],
      "name": "decimals",
      "outputs": [
        {
          "name": "",
          "type": "uint8"
        }
      ],
      "payable": false,
      "stateMutability": "view",
      "type": "function"
    },
    {
      "constant": true,
      "inputs": [],
      "name": "cap",
      "outputs": [
        {
          "name": "",
          "type": "uint256"
        }
      ],
      "payable": false,
      "stateMutability": "view",
      "type": "function"
    },
    {
      "constant": false,
      "inputs": [
        {
          "name": "spender",
          "type": "address"
        },
        {
          "name": "addedValue",
          "type": "uint256"
        }
      ],
      "name": "increaseAllowance",
      "outputs": [
        {
          "name": "",
          "type": "bool"
        }
      ],
      "payable": false,
      "stateMutability": "nonpayable",
      "type": "function"
    },
    {
      "constant": false,
      "inputs": [
        {
          "name": "to",
          "type": "address"
        },
        {
          "name": "value",
          "type": "uint256"
        }
      ],
      "name": "mint",
      "outputs": [
        {
          "name": "",
          "type": "bool"
        }
      ],
      "payable": false,
      "stateMutability": "nonpayable",
      "type": "function"
    },
    {
      "constant": false,
      "inputs": [
        {
          "name": "value",
          "type": "uint256"
        }
      ],
      "name": "burn",
      "outputs": [],
      "payable": false,
      "stateMutability": "nonpayable",
      "type": "function"
    },
    {
      "constant": false,
      "inputs": [],
      "name": "renounceKYClisted",
      "outputs": [],
      "payable": false,
      "stateMutability": "nonpayable",
      "type": "function"
    },
    {
      "constant": true,
      "inputs": [
        {
          "name": "owner",
          "type": "address"
        }
      ],
      "name": "balanceOf",
      "outputs": [
        {
          "name": "",
          "type": "uint256"
        }
      ],
      "payable": false,
      "stateMutability": "view",
      "type": "function"
    },
    {
      "constant": false,
      "inputs": [],
      "name": "renounceOwnership",
      "outputs": [],
      "payable": false,
      "stateMutability": "nonpayable",
      "type": "function"
    },
    {
      "constant": false,
      "inputs": [
        {
          "name": "account",
          "type": "address"
        }
      ],
      "name": "removeKYClisted",
      "outputs": [],
      "payable": false,
      "stateMutability": "nonpayable",
      "type": "function"
    },
    {
      "constant": false,
      "inputs": [
        {
          "name": "from",
          "type": "address"
        },
        {
          "name": "value",
          "type": "uint256"
        }
      ],
      "name": "burnFrom",
      "outputs": [],
      "payable": false,
      "stateMutability": "nonpayable",
      "type": "function"
    },
    {
      "constant": false,
      "inputs": [],
      "name": "finishMinting",
      "outputs": [
        {
          "name": "",
          "type": "bool"
        }
      ],
      "payable": false,
      "stateMutability": "nonpayable",
      "type": "function"
    },
    {
      "constant": false,
      "inputs": [
        {
          "name": "to",
          "type": "address"
        },
        {
          "name": "value",
          "type": "uint256"
        }
      ],
      "name": "approveAndMint",
      "outputs": [
        {
          "name": "",
          "type": "bool"
        }
      ],
      "payable": false,
      "stateMutability": "nonpayable",
      "type": "function"
    },
    {
      "constant": true,
      "inputs": [],
      "name": "owner",
      "outputs": [
        {
          "name": "",
          "type": "address"
        }
      ],
      "payable": false,
      "stateMutability": "view",
      "type": "function"
    },
    {
      "constant": true,
      "inputs": [],
      "name": "isOwner",
      "outputs": [
        {
          "name": "",
          "type": "bool"
        }
      ],
      "payable": false,
      "stateMutability": "view",
      "type": "function"
    },
    {
      "constant": false,
      "inputs": [
        {
          "name": "account",
          "type": "address"
        }
      ],
      "name": "addKYCAdmin",
      "outputs": [],
      "payable": false,
      "stateMutability": "nonpayable",
      "type": "function"
    },
    {
      "constant": true,
      "inputs": [],
      "name": "symbol",
      "outputs": [
        {
          "name": "",
          "type": "string"
        }
      ],
      "payable": false,
      "stateMutability": "view",
      "type": "function"
    },
    {
      "constant": false,
      "inputs": [
        {
          "name": "account",
          "type": "address"
        }
      ],
      "name": "addMinter",
      "outputs": [],
      "payable": false,
      "stateMutability": "nonpayable",
      "type": "function"
    },
    {
      "constant": false,
      "inputs": [],
      "name": "renounceMinter",
      "outputs": [],
      "payable": false,
      "stateMutability": "nonpayable",
      "type": "function"
    },
    {
      "constant": true,
      "inputs": [
        {
          "name": "account",
          "type": "address"
        }
      ],
      "name": "isKYClisted",
      "outputs": [
        {
          "name": "",
          "type": "bool"
        }
      ],
      "payable": false,
      "stateMutability": "view",
      "type": "function"
    },
    {
      "constant": false,
      "inputs": [
        {
          "name": "spender",
          "type": "address"
        },
        {
          "name": "subtractedValue",
          "type": "uint256"
        }
      ],
      "name": "decreaseAllowance",
      "outputs": [
        {
          "name": "",
          "type": "bool"
        }
      ],
      "payable": false,
      "stateMutability": "nonpayable",
      "type": "function"
    },
    {
      "constant": false,
      "inputs": [
        {
          "name": "to",
          "type": "address"
        },
        {
          "name": "value",
          "type": "uint256"
        }
      ],
      "name": "transfer",
      "outputs": [
        {
          "name": "",
          "type": "bool"
        }
      ],
      "payable": false,
      "stateMutability": "nonpayable",
      "type": "function"
    },
    {
      "constant": true,
      "inputs": [
        {
          "name": "account",
          "type": "address"
        }
      ],
      "name": "isMinter",
      "outputs": [
        {
          "name": "",
          "type": "bool"
        }
      ],
      "payable": false,
      "stateMutability": "view",
      "type": "function"
    },
    {
      "constant": true,
      "inputs": [
        {
          "name": "investorAddress",
          "type": "address"
        }
      ],
      "name": "isFreeInvestor",
      "outputs": [
        {
          "name": "",
          "type": "bool"
        }
      ],
      "payable": false,
      "stateMutability": "view",
      "type": "function"
    },
    {
      "constant": false,
      "inputs": [
        {
          "name": "from",
          "type": "address"
        },
        {
          "name": "to",
          "type": "address"
        }
      ],
      "name": "restoreTokens",
      "outputs": [
        {
          "name": "",
          "type": "bool"
        }
      ],
      "payable": false,
      "stateMutability": "nonpayable",
      "type": "function"
    },
    {
      "constant": false,
      "inputs": [
        {
          "name": "account",
          "type": "address"
        }
      ],
      "name": "removeKYCAdmin",
      "outputs": [],
      "payable": false,
      "stateMutability": "nonpayable",
      "type": "function"
    },
    {
      "constant": true,
      "inputs": [
        {
          "name": "owner",
          "type": "address"
        },
        {
          "name": "spender",
          "type": "address"
        }
      ],
      "name": "allowance",
      "outputs": [
        {
          "name": "",
          "type": "uint256"
        }
      ],
      "payable": false,
      "stateMutability": "view",
      "type": "function"
    },
    {
      "constant": false,
      "inputs": [
        {
          "name": "newOwner",
          "type": "address"
        }
      ],
      "name": "transferOwnership",
      "outputs": [],
      "payable": false,
      "stateMutability": "nonpayable",
      "type": "function"
    },
    {
      "inputs": [
        {
          "name": "cap",
          "type": "uint256"
        },
        {
          "name": "name",
          "type": "string"
        },
        {
          "name": "symbol",
          "type": "string"
        },
        {
          "name": "decimals",
          "type": "uint8"
        }
      ],
      "payable": false,
      "stateMutability": "nonpayable",
      "type": "constructor"
    },
    {
      "anonymous": false,
      "inputs": [],
      "name": "MintFinished",
      "type": "event"
    },
    {
      "anonymous": false,
      "inputs": [
        {
          "indexed": true,
          "name": "from",
          "type": "address"
        },
        {
          "indexed": true,
          "name": "to",
          "type": "address"
        },
        {
          "indexed": false,
          "name": "value",
          "type": "uint256"
        }
      ],
      "name": "Restore",
      "type": "event"
    },
    {
      "anonymous": false,
      "inputs": [
        {
          "indexed": true,
          "name": "account",
          "type": "address"
        }
      ],
      "name": "MinterAdded",
      "type": "event"
    },
    {
      "anonymous": false,
      "inputs": [
        {
          "indexed": true,
          "name": "account",
          "type": "address"
        }
      ],
      "name": "MinterRemoved",
      "type": "event"
    },
    {
      "anonymous": false,
      "inputs": [
        {
          "indexed": true,
          "name": "from",
          "type": "address"
        },
        {
          "indexed": true,
          "name": "to",
          "type": "address"
        },
        {
          "indexed": false,
          "name": "value",
          "type": "uint256"
        }
      ],
      "name": "Transfer",
      "type": "event"
    },
    {
      "anonymous": false,
      "inputs": [
        {
          "indexed": true,
          "name": "owner",
          "type": "address"
        },
        {
          "indexed": true,
          "name": "spender",
          "type": "address"
        },
        {
          "indexed": false,
          "name": "value",
          "type": "uint256"
        }
      ],
      "name": "Approval",
      "type": "event"
    },
    {
      "anonymous": false,
      "inputs": [
        {
          "indexed": true,
          "name": "account",
          "type": "address"
        }
      ],
      "name": "KYClistedAdded",
      "type": "event"
    },
    {
      "anonymous": false,
      "inputs": [
        {
          "indexed": true,
          "name": "account",
          "type": "address"
        }
      ],
      "name": "KYClistedRemoved",
      "type": "event"
    },
    {
      "anonymous": false,
      "inputs": [
        {
          "indexed": true,
          "name": "account",
          "type": "address"
        }
      ],
      "name": "KYCAdminAdded",
      "type": "event"
    },
    {
      "anonymous": false,
      "inputs": [
        {
          "indexed": true,
          "name": "account",
          "type": "address"
        }
      ],
      "name": "KYCAdminRemoved",
      "type": "event"
    },
    {
      "anonymous": false,
      "inputs": [
        {
          "indexed": true,
          "name": "previousOwner",
          "type": "address"
        },
        {
          "indexed": true,
          "name": "newOwner",
          "type": "address"
        }
      ],
      "name": "OwnershipTransferred",
      "type": "event"
    }
  ],
  "bytecode": "0x60806040526008805460ff191690553480156200001b57600080fd5b506040516200197c3803806200197c833981018060405260808110156200004157600080fd5b8151602083018051919392830192916401000000008111156200006357600080fd5b820160208101848111156200007757600080fd5b81516401000000008111828201871017156200009257600080fd5b50509291906020018051640100000000811115620000af57600080fd5b82016020810184811115620000c357600080fd5b8151640100000000811182820187101715620000de57600080fd5b5050602090910151600080546001600160a01b0319163317808255604051939550919350859285928592899283926001600160a01b031691907f8be0079c531659141344cd1fd0a4f28419497f9722a3daafe3b4186f6b6457e0908290a36200014d33620001bd60201b60201c565b6200015e336200020f60201b60201c565b600081116200016c57600080fd5b60075550825162000185906009906020860190620002ed565b5081516200019b90600a906020850190620002ed565b50600b805460ff191660ff929092169190911790555062000392945050505050565b620001d88160016200026160201b6200127b1790919060201c565b6040516001600160a01b038216907f6ef188d34b8fac4126790bd81059831348a92504fa4f99a97c9958a1749c63bc90600090a250565b6200022a8160066200026160201b6200127b1790919060201c565b6040516001600160a01b038216907f6ae172837ea30b801fbfcdd4108aa1d5bf8ff775444fd70256b44e6bf3dfc3f690600090a250565b6001600160a01b0381166200027557600080fd5b620002878282620002b760201b60201c565b156200029257600080fd5b6001600160a01b0316600090815260209190915260409020805460ff19166001179055565b60006001600160a01b038216620002cd57600080fd5b506001600160a01b03166000908152602091909152604090205460ff1690565b828054600181600116156101000203166002900490600052602060002090601f016020900481019282601f106200033057805160ff191683800117855562000360565b8280016001018555821562000360579182015b828111156200036057825182559160200191906001019062000343565b506200036e92915062000372565b5090565b6200038f91905b808211156200036e576000815560010162000379565b90565b6115da80620003a26000396000f3fe608060405234801561001057600080fd5b50600436106102115760003560e01c806379cc679011610125578063a2d5027a116100ad578063c2282f771161007c578063c2282f7714610604578063c6416f4c1461062a578063d92a6cf614610658578063dd62ed3e1461067e578063f2fde38b146106ac57610211565b8063a2d5027a14610560578063a457c2d714610586578063a9059cbb146105b2578063aa271e1a146105de57610211565b80638f32d59b116100f45780638f32d59b146104fc5780638fd600041461050457806395d89b411461052a578063983b2d5614610532578063986502751461055857610211565b806379cc6790146104785780637d64bcb4146104a45780638aa0ddc8146104ac5780638da5cb5b146104d857610211565b8063313ce567116101a857806342966c681161017757806342966c68146103ff5780635b4e3f3d1461041c57806370a0823114610424578063715018a61461044a5780637696f4161461045257610211565b8063313ce56714610381578063355274ea1461039f57806339509351146103a757806340c10f19146103d357610211565b80631548dbc8116101e45780631548dbc81461030157806318160ddd1461030b57806323b872dd146103255780632c1019221461035b57610211565b806305d2035b1461021657806306fdde0314610232578063095ea7b3146102af57806312f25343146102db575b600080fd5b61021e6106d2565b604080519115158252519081900360200190f35b61023a6106db565b6040805160208082528351818301528351919283929083019185019080838360005b8381101561027457818101518382015260200161025c565b50505050905090810190601f1680156102a15780820380516001836020036101000a031916815260200191505b509250505060405180910390f35b61021e600480360360408110156102c557600080fd5b506001600160a01b038135169060200135610771565b61021e600480360360208110156102f157600080fd5b50356001600160a01b03166107db565b6103096107f4565b005b6103136107ff565b60408051918252519081900360200190f35b61021e6004803603606081101561033b57600080fd5b506001600160a01b03813581169160208101359091169060400135610805565b6103096004803603602081101561037157600080fd5b50356001600160a01b03166108b8565b6103896108d6565b6040805160ff9092168252519081900360200190f35b6103136108df565b61021e600480360360408110156103bd57600080fd5b506001600160a01b0381351690602001356108e5565b61021e600480360360408110156103e957600080fd5b506001600160a01b038135169060200135610981565b6103096004803603602081101561041557600080fd5b50356109b9565b6103096109d3565b6103136004803603602081101561043a57600080fd5b50356001600160a01b03166109dc565b6103096109f7565b6103096004803603602081101561046857600080fd5b50356001600160a01b0316610a52565b6103096004803603604081101561048e57600080fd5b506001600160a01b038135169060200135610a6d565b61021e610a8c565b61021e600480360360408110156104c257600080fd5b506001600160a01b038135169060200135610aeb565b6104e0610b18565b604080516001600160a01b039092168252519081900360200190f35b61021e610b27565b6103096004803603602081101561051a57600080fd5b50356001600160a01b0316610b38565b61023a610b52565b6103096004803603602081101561054857600080fd5b50356001600160a01b0316610bb3565b610309610bce565b61021e6004803603602081101561057657600080fd5b50356001600160a01b0316610bd7565b61021e6004803603604081101561059c57600080fd5b506001600160a01b038135169060200135610bea565b61021e600480360360408110156105c857600080fd5b506001600160a01b038135169060200135610c33565b61021e600480360360208110156105f457600080fd5b50356001600160a01b0316610ce4565b61021e6004803603602081101561061a57600080fd5b50356001600160a01b0316610cf7565b61021e6004803603604081101561064057600080fd5b506001600160a01b0381358116916020013516610d02565b6103096004803603602081101561066e57600080fd5b50356001600160a01b0316610dab565b6103136004803603604081101561069457600080fd5b506001600160a01b0381358116916020013516610dc5565b610309600480360360208110156106c257600080fd5b50356001600160a01b0316610df0565b60085460ff1681565b60098054604080516020601f60026000196101006001881615020190951694909404938401819004810282018101909252828152606093909290918301828280156107675780601f1061073c57610100808354040283529160200191610767565b820191906000526020600020905b81548152906001019060200180831161074a57829003601f168201915b5050505050905090565b60006001600160a01b03831661078657600080fd5b3360008181526004602090815260408083206001600160a01b038816808552908352928190208690558051868152905192939260008051602061158f833981519152929181900390910190a350600192915050565b60006107ee60018363ffffffff610e0a16565b92915050565b6107fd33610e3f565b565b60055490565b60085460009060ff1661081757600080fd5b61082083610e87565b61085e57604051600160e51b62461bcd0281526004018080602001828103825260258152602001806115436025913960400191505060405180910390fd5b61086784610e87565b6108a557604051600160e51b62461bcd0281526004018080602001828103825260278152602001806115686027913960400191505060405180910390fd5b6108b0848484610e92565b949350505050565b6108c1336107db565b6108ca57600080fd5b6108d381610f49565b50565b600b5460ff1690565b60075490565b60006001600160a01b0383166108fa57600080fd5b3360009081526004602090815260408083206001600160a01b038716845290915290205461092e908363ffffffff610f9116565b3360008181526004602090815260408083206001600160a01b03891680855290835292819020859055805194855251919360008051602061158f833981519152929081900390910190a350600192915050565b600061098c33610ce4565b61099557600080fd5b60085460ff16156109a557600080fd5b6109af8383610fa3565b5060019392505050565b6109c1610b27565b6109ca57600080fd5b6108d381610fca565b6107fd33610fd4565b6001600160a01b031660009081526003602052604090205490565b6109ff610b27565b610a0857600080fd5b600080546040516001600160a01b03909116907f8be0079c531659141344cd1fd0a4f28419497f9722a3daafe3b4186f6b6457e0908390a3600080546001600160a01b0319169055565b610a5b336107db565b610a6457600080fd5b6108d381610fd4565b610a75610b27565b610a7e57600080fd5b610a88828261101c565b5050565b6000610a96610b27565b610a9f57600080fd5b60085460ff1615610aaf57600080fd5b6008805460ff191660011790556040517fae5184fba832cb2b1f702aca6117b8d265eaf03ad33eb133f19dde0f5920fa0890600090a150600190565b6000610af633610ce4565b610aff57600080fd5b60085460ff1615610b0f57600080fd5b6109a5836108b8565b6000546001600160a01b031690565b6000546001600160a01b0316331490565b610b40610b27565b610b4957600080fd5b6108d381611026565b600a8054604080516020601f60026000196101006001881615020190951694909404938401819004810282018101909252828152606093909290918301828280156107675780601f1061073c57610100808354040283529160200191610767565b610bbc33610ce4565b610bc557600080fd5b6108d381611041565b6107fd33611089565b60006107ee60028363ffffffff610e0a16565b60006001600160a01b038316610bff57600080fd5b3360009081526004602090815260408083206001600160a01b038716845290915290205461092e908363ffffffff6110d116565b60085460009060ff16610c4557600080fd5b610c4e83610e87565b610c8c57604051600160e51b62461bcd0281526004018080602001828103825260258152602001806115436025913960400191505060405180910390fd5b610c9533610e87565b610cd357604051600160e51b62461bcd0281526004018080602001828103825260278152602001806115686027913960400191505060405180910390fd5b610cdd83836110e6565b9392505050565b60006107ee60068363ffffffff610e0a16565b60006107ee82610bd7565b6000610d0c610b27565b610d1557600080fd5b6001600160a01b038216610d2857600080fd5b610d3182610bd7565b610d3e57610d3e826108b8565b6000610d49846109dc565b9050610d568484836110ef565b826001600160a01b0316846001600160a01b03167f8d517738b620ddd4757b2c72628ad2ee2e182d8eadaceb727477e0b661e0afad836040518082815260200191505060405180910390a35060019392505050565b610db3610b27565b610dbc57600080fd5b6108d3816111bc565b6001600160a01b03918216600090815260046020908152604080832093909416825291909152205490565b610df8610b27565b610e0157600080fd5b6108d3816111c5565b60006001600160a01b038216610e1f57600080fd5b506001600160a01b03166000908152602091909152604090205460ff1690565b610e5060018263ffffffff61123316565b6040516001600160a01b038216907fe989c3ea74e8447b86355ca10e7b910a5ea9931330517c33e3002727f5e95ee890600090a250565b60006107ee82610cf7565b6001600160a01b0383166000908152600460209081526040808320338452909152812054610ec6908363ffffffff6110d116565b6001600160a01b0385166000908152600460209081526040808320338452909152902055610ef58484846110ef565b6001600160a01b03841660008181526004602090815260408083203380855290835292819020548151908152905192939260008051602061158f833981519152929181900390910190a35060019392505050565b610f5a60028263ffffffff61127b16565b6040516001600160a01b038216907f5a85c934d044d4af54e45ef3efa70919b2301fe806a7b570e09d7e0f90a4445a90600090a250565b600082820183811015610cdd57600080fd5b6000610fae33610ce4565b610fb757600080fd5b610fc183836112c7565b50600192915050565b6108d333826112f7565b610fe560028263ffffffff61123316565b6040516001600160a01b038216907fbc6a411073357cff5bee0c71e7722c8fd47b5a40591adcedeaac84bd10c0736890600090a250565b610a8882826113a0565b61102f336107db565b61103857600080fd5b6108d381611450565b61105260068263ffffffff61127b16565b6040516001600160a01b038216907f6ae172837ea30b801fbfcdd4108aa1d5bf8ff775444fd70256b44e6bf3dfc3f690600090a250565b61109a60068263ffffffff61123316565b6040516001600160a01b038216907fe94479a9f7e1952cc78f2d6baab678adc1b772d936c6583def489e524cb6669290600090a250565b6000828211156110e057600080fd5b50900390565b6000610fc13384845b6001600160a01b03821661110257600080fd5b6001600160a01b03831660009081526003602052604090205461112b908263ffffffff6110d116565b6001600160a01b038085166000908152600360205260408082209390935590841681522054611160908263ffffffff610f9116565b6001600160a01b0380841660008181526003602090815260409182902094909455805185815290519193928716927fddf252ad1be2c89b69c2b068fc378daa952ba7f163c4a11628f55a4df523b3ef92918290030190a3505050565b6108d381610e3f565b6001600160a01b0381166111d857600080fd5b600080546040516001600160a01b03808516939216917f8be0079c531659141344cd1fd0a4f28419497f9722a3daafe3b4186f6b6457e091a3600080546001600160a01b0319166001600160a01b0392909216919091179055565b6001600160a01b03811661124657600080fd5b6112508282610e0a565b61125957600080fd5b6001600160a01b0316600090815260209190915260409020805460ff19169055565b6001600160a01b03811661128e57600080fd5b6112988282610e0a565b156112a257600080fd5b6001600160a01b0316600090815260209190915260409020805460ff19166001179055565b6007546112e2826112d66107ff565b9063ffffffff610f9116565b11156112ed57600080fd5b610a888282611498565b6001600160a01b03821661130a57600080fd5b60055461131d908263ffffffff6110d116565b6005556001600160a01b038216600090815260036020526040902054611349908263ffffffff6110d116565b6001600160a01b0383166000818152600360209081526040808320949094558351858152935191937fddf252ad1be2c89b69c2b068fc378daa952ba7f163c4a11628f55a4df523b3ef929081900390910190a35050565b6001600160a01b03821660009081526004602090815260408083203384529091529020546113d4908263ffffffff6110d116565b6001600160a01b038316600090815260046020908152604080832033845290915290205561140282826112f7565b6001600160a01b03821660008181526004602090815260408083203380855290835292819020548151908152905192939260008051602061158f833981519152929181900390910190a35050565b61146160018263ffffffff61127b16565b6040516001600160a01b038216907f6ef188d34b8fac4126790bd81059831348a92504fa4f99a97c9958a1749c63bc90600090a250565b6001600160a01b0382166114ab57600080fd5b6005546114be908263ffffffff610f9116565b6005556001600160a01b0382166000908152600360205260409020546114ea908263ffffffff610f9116565b6001600160a01b03831660008181526003602090815260408083209490945583518581529351929391927fddf252ad1be2c89b69c2b068fc378daa952ba7f163c4a11628f55a4df523b3ef9281900390910190a3505056fe427579696e6720696e766573746f72206973206e6f7420616c6c6f77656420746f2062757953656c6c696e6720696e766573746f72206973206e6f7420616c6c6f77656420746f2073656c6c8c5be1e5ebec7d5bd14f71427d1e84f3dd0314c0f7b2291e5b200ac8c7c3b925a165627a7a72305820beddef2eb38bb6a8006983b9f8d9a2fc31847aa416dccc126b3cd571efe9732f0029",
  "source": "pragma solidity ^0.5.7;\n\nimport \"openzeppelin-solidity/contracts/token/ERC20/ERC20Detailed.sol\";\nimport \"./WhiteListToken.sol\";\n\ncontract StellerroESToken is WhiteListToken, ERC20Detailed{\n\n    constructor(uint256 cap, string memory name, string memory symbol, uint8 decimals)\n      WhiteListToken(cap)\n      ERC20Detailed(name, symbol, decimals)\n    public {\n    }\n\n}\n",
  "sourcePath": "C:/Users/Noam/BCS/stellero/Dev/StellerroToken/contracts/StellerroESToken.sol",
  "compiler": {
    "name": "solc",
    "version": "0.5.8+commit.23d335f2.Emscripten.clang"
  },
  "schemaVersion": "3.0.11",
  "updatedAt": "2019-06-29T19:47:20.788Z",
  "devdoc": {
    "methods": {
      "addKYCAdmin(address)": {
        "params": {
          "account": "the address to add"
        }
      },
      "allowance(address,address)": {
        "details": "Function to check the amount of tokens that an owner allowed to a spender.",
        "params": {
          "owner": "address The address which owns the funds.",
          "spender": "address The address which will spend the funds."
        },
        "return": "A uint256 specifying the amount of tokens still available for the spender."
      },
      "approve(address,uint256)": {
        "details": "Approve the passed address to spend the specified amount of tokens on behalf of msg.sender. Beware that changing an allowance with this method brings the risk that someone may use both the old and the new allowance by unfortunate transaction ordering. One possible solution to mitigate this race condition is to first reduce the spender's allowance to 0 and set the desired value afterwards: https://github.com/ethereum/EIPs/issues/20#issuecomment-263524729",
        "params": {
          "spender": "The address which will spend the funds.",
          "value": "The amount of tokens to be spent."
        }
      },
      "balanceOf(address)": {
        "details": "Gets the balance of the specified address.",
        "params": {
          "owner": "The address to query the balance of."
        },
        "return": "An uint256 representing the amount owned by the passed address."
      },
      "burn(uint256)": {
        "details": "Burns a specific amount of tokens.",
        "params": {
          "value": "The amount of token to be burned."
        }
      },
      "burnFrom(address,uint256)": {
        "details": "Burns a specific amount of tokens from the target address and decrements allowance",
        "params": {
          "from": "address The address which you want to send tokens from",
          "value": "uint256 The amount of token to be burned"
        }
      },
      "cap()": {
        "return": "the cap for the token minting."
      },
      "decimals()": {
        "return": "the number of decimals of the token."
      },
      "decreaseAllowance(address,uint256)": {
        "details": "Decrease the amount of tokens that an owner allowed to a spender. approve should be called when allowed_[_spender] == 0. To decrement allowed value is better to use this function to avoid 2 calls (and wait until the first transaction is mined) From MonolithDAO Token.sol Emits an Approval event.",
        "params": {
          "spender": "The address which will spend the funds.",
          "subtractedValue": "The amount of tokens to decrease the allowance by."
        }
      },
      "finishMinting()": {
        "details": "Function to stop minting new tokens.",
        "return": "True if the operation was successful."
      },
      "increaseAllowance(address,uint256)": {
        "details": "Increase the amount of tokens that an owner allowed to a spender. approve should be called when allowed_[_spender] == 0. To increment allowed value is better to use this function to avoid 2 calls (and wait until the first transaction is mined) From MonolithDAO Token.sol Emits an Approval event.",
        "params": {
          "addedValue": "The amount of tokens to increase the allowance by.",
          "spender": "The address which will spend the funds."
        }
      },
      "isFreeInvestor(address)": {
        "params": {
          "investorAddress": "the investor address"
        }
      },
      "isOwner()": {
        "return": "true if `msg.sender` is the owner of the contract."
      },
      "name()": {
        "return": "the name of the token."
      },
      "owner()": {
        "return": "the address of the owner."
      },
      "removeKYCAdmin(address)": {
        "params": {
          "account": "the address to remove"
        }
      },
      "renounceOwnership()": {
        "details": "Allows the current owner to relinquish control of the contract."
      },
      "restoreTokens(address,address)": {
        "details": "restore tokens from one address to another. to use only in case a user cannot access its token.",
        "params": {
          "from": "address The old user's address",
          "to": "address The new user's address"
        }
      },
      "symbol()": {
        "return": "the symbol of the token."
      },
      "totalSupply()": {
        "details": "Total number of tokens in existence"
      },
      "transfer(address,uint256)": {
        "details": "Transfer token for a specified address",
        "params": {
          "to": "The address to transfer to.",
          "value": "The amount to be transferred."
        }
      },
      "transferFrom(address,address,uint256)": {
        "details": "Transfer tokens from one address to another",
        "params": {
          "from": "address The address which you want to send tokens from",
          "to": "address The address which you want to transfer to",
          "value": "uint256 the amount of tokens to be transferred"
        }
      },
      "transferOwnership(address)": {
        "details": "Allows the current owner to transfer control of the contract to a newOwner.",
        "params": {
          "newOwner": "The address to transfer ownership to."
        }
      }
    }
  },
  "userdoc": {
    "methods": {
      "addKYCAdmin(address)": {
        "notice": "Add a kyc admin"
      },
      "isFreeInvestor(address)": {
        "notice": "Check if the investor is KYC approved and also accredited"
      },
      "removeKYCAdmin(address)": {
        "notice": "Remove a kyc admin"
      },
      "renounceOwnership()": {
        "notice": "Renouncing to ownership will leave the contract without an owner. It will not be possible to call the functions with the `onlyOwner` modifier anymore."
      }
    }
  }
}