{
  "contractName": "WhiteListTokenAccess",
  "abi": [
    {
      "constant": true,
      "inputs": [
        {
          "name": "account",
          "type": "address"
        }
      ],
      "name": "isKYCAdmin",
      "outputs": [
        {
          "name": "",
          "type": "bool"
        }
      ],
      "payable": false,
      "stateMutability": "view",
      "type": "function"
    },
    {
      "constant": false,
      "inputs": [],
      "name": "renounceKYCAdmin",
      "outputs": [],
      "payable": false,
      "stateMutability": "nonpayable",
      "type": "function"
    },
    {
      "constant": false,
      "inputs": [
        {
          "name": "account",
          "type": "address"
        }
      ],
      "name": "addKYClisted",
      "outputs": [],
      "payable": false,
      "stateMutability": "nonpayable",
      "type": "function"
    },
    {
      "constant": false,
      "inputs": [],
      "name": "renounceKYClisted",
      "outputs": [],
      "payable": false,
      "stateMutability": "nonpayable",
      "type": "function"
    },
    {
      "constant": false,
      "inputs": [],
      "name": "renounceOwnership",
      "outputs": [],
      "payable": false,
      "stateMutability": "nonpayable",
      "type": "function"
    },
    {
      "constant": false,
      "inputs": [
        {
          "name": "account",
          "type": "address"
        }
      ],
      "name": "removeKYClisted",
      "outputs": [],
      "payable": false,
      "stateMutability": "nonpayable",
      "type": "function"
    },
    {
      "constant": true,
      "inputs": [],
      "name": "owner",
      "outputs": [
        {
          "name": "",
          "type": "address"
        }
      ],
      "payable": false,
      "stateMutability": "view",
      "type": "function"
    },
    {
      "constant": true,
      "inputs": [],
      "name": "isOwner",
      "outputs": [
        {
          "name": "",
          "type": "bool"
        }
      ],
      "payable": false,
      "stateMutability": "view",
      "type": "function"
    },
    {
      "constant": true,
      "inputs": [
        {
          "name": "account",
          "type": "address"
        }
      ],
      "name": "isKYClisted",
      "outputs": [
        {
          "name": "",
          "type": "bool"
        }
      ],
      "payable": false,
      "stateMutability": "view",
      "type": "function"
    },
    {
      "constant": false,
      "inputs": [
        {
          "name": "newOwner",
          "type": "address"
        }
      ],
      "name": "transferOwnership",
      "outputs": [],
      "payable": false,
      "stateMutability": "nonpayable",
      "type": "function"
    },
    {
      "anonymous": false,
      "inputs": [
        {
          "indexed": true,
          "name": "account",
          "type": "address"
        }
      ],
      "name": "KYClistedAdded",
      "type": "event"
    },
    {
      "anonymous": false,
      "inputs": [
        {
          "indexed": true,
          "name": "account",
          "type": "address"
        }
      ],
      "name": "KYClistedRemoved",
      "type": "event"
    },
    {
      "anonymous": false,
      "inputs": [
        {
          "indexed": true,
          "name": "account",
          "type": "address"
        }
      ],
      "name": "KYCAdminAdded",
      "type": "event"
    },
    {
      "anonymous": false,
      "inputs": [
        {
          "indexed": true,
          "name": "account",
          "type": "address"
        }
      ],
      "name": "KYCAdminRemoved",
      "type": "event"
    },
    {
      "anonymous": false,
      "inputs": [
        {
          "indexed": true,
          "name": "previousOwner",
          "type": "address"
        },
        {
          "indexed": true,
          "name": "newOwner",
          "type": "address"
        }
      ],
      "name": "OwnershipTransferred",
      "type": "event"
    },
    {
      "constant": false,
      "inputs": [
        {
          "name": "account",
          "type": "address"
        }
      ],
      "name": "addKYCAdmin",
      "outputs": [],
      "payable": false,
      "stateMutability": "nonpayable",
      "type": "function"
    },
    {
      "constant": false,
      "inputs": [
        {
          "name": "account",
          "type": "address"
        }
      ],
      "name": "removeKYCAdmin",
      "outputs": [],
      "payable": false,
      "stateMutability": "nonpayable",
      "type": "function"
    },
    {
      "constant": true,
      "inputs": [
        {
          "name": "investorAddress",
          "type": "address"
        }
      ],
      "name": "isFreeInvestor",
      "outputs": [
        {
          "name": "",
          "type": "bool"
        }
      ],
      "payable": false,
      "stateMutability": "view",
      "type": "function"
    }
  ],
  "bytecode": "0x60806040819052600080546001600160a01b03191633178082556001600160a01b0316917f8be0079c531659141344cd1fd0a4f28419497f9722a3daafe3b4186f6b6457e0908290a36100573361005c60201b60201c565b610132565b6100748160016100ab60201b6105921790919060201c565b6040516001600160a01b038216907f6ef188d34b8fac4126790bd81059831348a92504fa4f99a97c9958a1749c63bc90600090a250565b6001600160a01b0381166100be57600080fd5b6100ce82826100fd60201b60201c565b156100d857600080fd5b6001600160a01b0316600090815260209190915260409020805460ff19166001179055565b60006001600160a01b03821661011257600080fd5b506001600160a01b03166000908152602091909152604090205460ff1690565b610652806101416000396000f3fe608060405234801561001057600080fd5b50600436106100cf5760003560e01c80638da5cb5b1161008c578063a2d5027a11610066578063a2d5027a146101c6578063c2282f77146101ec578063d92a6cf614610212578063f2fde38b14610238576100cf565b80638da5cb5b146101745780638f32d59b146101985780638fd60004146101a0576100cf565b806312f25343146100d45780631548dbc81461010e5780632c101922146101185780635b4e3f3d1461013e578063715018a6146101465780637696f4161461014e575b600080fd5b6100fa600480360360208110156100ea57600080fd5b50356001600160a01b031661025e565b604080519115158252519081900360200190f35b610116610277565b005b6101166004803603602081101561012e57600080fd5b50356001600160a01b0316610282565b6101166102a0565b6101166102a9565b6101166004803603602081101561016457600080fd5b50356001600160a01b0316610304565b61017c61031f565b604080516001600160a01b039092168252519081900360200190f35b6100fa61032e565b610116600480360360208110156101b657600080fd5b50356001600160a01b031661033f565b6100fa600480360360208110156101dc57600080fd5b50356001600160a01b0316610359565b6100fa6004803603602081101561020257600080fd5b50356001600160a01b031661036c565b6101166004803603602081101561022857600080fd5b50356001600160a01b0316610377565b6101166004803603602081101561024e57600080fd5b50356001600160a01b0316610391565b600061027160018363ffffffff6103ab16565b92915050565b610280336103e0565b565b61028b3361025e565b61029457600080fd5b61029d81610428565b50565b61028033610470565b6102b161032e565b6102ba57600080fd5b600080546040516001600160a01b03909116907f8be0079c531659141344cd1fd0a4f28419497f9722a3daafe3b4186f6b6457e0908390a3600080546001600160a01b0319169055565b61030d3361025e565b61031657600080fd5b61029d81610470565b6000546001600160a01b031690565b6000546001600160a01b0316331490565b61034761032e565b61035057600080fd5b61029d816104b8565b600061027160028363ffffffff6103ab16565b600061027182610359565b61037f61032e565b61038857600080fd5b61029d816104d3565b61039961032e565b6103a257600080fd5b61029d816104dc565b60006001600160a01b0382166103c057600080fd5b506001600160a01b03166000908152602091909152604090205460ff1690565b6103f160018263ffffffff61054a16565b6040516001600160a01b038216907fe989c3ea74e8447b86355ca10e7b910a5ea9931330517c33e3002727f5e95ee890600090a250565b61043960028263ffffffff61059216565b6040516001600160a01b038216907f5a85c934d044d4af54e45ef3efa70919b2301fe806a7b570e09d7e0f90a4445a90600090a250565b61048160028263ffffffff61054a16565b6040516001600160a01b038216907fbc6a411073357cff5bee0c71e7722c8fd47b5a40591adcedeaac84bd10c0736890600090a250565b6104c13361025e565b6104ca57600080fd5b61029d816105de565b61029d816103e0565b6001600160a01b0381166104ef57600080fd5b600080546040516001600160a01b03808516939216917f8be0079c531659141344cd1fd0a4f28419497f9722a3daafe3b4186f6b6457e091a3600080546001600160a01b0319166001600160a01b0392909216919091179055565b6001600160a01b03811661055d57600080fd5b61056782826103ab565b61057057600080fd5b6001600160a01b0316600090815260209190915260409020805460ff19169055565b6001600160a01b0381166105a557600080fd5b6105af82826103ab565b156105b957600080fd5b6001600160a01b0316600090815260209190915260409020805460ff19166001179055565b6105ef60018263ffffffff61059216565b6040516001600160a01b038216907f6ef188d34b8fac4126790bd81059831348a92504fa4f99a97c9958a1749c63bc90600090a25056fea165627a7a72305820f909df44b409fa61ba9c1cc2aa3058e63c55959720c8893a912cb6fe161ee3a50029",
  "source": "pragma solidity ^0.5.7;\n\nimport \"openzeppelin-solidity/contracts/ownership/Ownable.sol\";\nimport \"./KYCListedRole.sol\";\n\n/**\n * contains roles for regular whitelisted token\n */\ncontract WhiteListTokenAccess is Ownable, KYCListedRole{\n\n  /**\n   * Add a kyc admin\n   * @param account the address to add\n   */\n  function addKYCAdmin(address account) public onlyOwner{\n      super.addKYCAdmin(account);\n  }\n\n  /**\n   * Remove a kyc admin\n   * @param account the address to remove\n   */\n  function removeKYCAdmin(address account) public onlyOwner{\n      super.removeKYCAdmin(account);\n  }\n\n  /**\n   * Check if the investor is KYC approved and also accredited\n   * @param investorAddress the investor address\n   */\n  function isFreeInvestor(address investorAddress) public view returns (bool) {\n    return isKYClisted(investorAddress);\n    /* if(!isKYClisted(_investorAddress)){\n        return false;\n    }\n\n    return true; */\n  }\n}\n",
  "sourcePath": "C:\\Users\\Noam\\BCS\\stellero\\Dev\\StellerroToken\\contracts\\WhiteListTokenAccess.sol",
  "compiler": {
    "name": "solc",
    "version": "0.5.8+commit.23d335f2.Emscripten.clang"
  },
  "schemaVersion": "3.0.11",
  "updatedAt": "2019-07-01T13:17:31.979Z",
  "devdoc": {
    "methods": {
      "addKYCAdmin(address)": {
        "params": {
          "account": "the address to add"
        }
      },
      "isFreeInvestor(address)": {
        "params": {
          "investorAddress": "the investor address"
        }
      },
      "isOwner()": {
        "return": "true if `msg.sender` is the owner of the contract."
      },
      "owner()": {
        "return": "the address of the owner."
      },
      "removeKYCAdmin(address)": {
        "params": {
          "account": "the address to remove"
        }
      },
      "renounceOwnership()": {
        "details": "Allows the current owner to relinquish control of the contract."
      },
      "transferOwnership(address)": {
        "details": "Allows the current owner to transfer control of the contract to a newOwner.",
        "params": {
          "newOwner": "The address to transfer ownership to."
        }
      }
    }
  },
  "userdoc": {
    "methods": {
      "addKYCAdmin(address)": {
        "notice": "Add a kyc admin"
      },
      "isFreeInvestor(address)": {
        "notice": "Check if the investor is KYC approved and also accredited"
      },
      "removeKYCAdmin(address)": {
        "notice": "Remove a kyc admin"
      },
      "renounceOwnership()": {
        "notice": "Renouncing to ownership will leave the contract without an owner. It will not be possible to call the functions with the `onlyOwner` modifier anymore."
      }
    },
    "notice": "contains roles for regular whitelisted token"
  }
}