{
  "contractName": "WhiteListTokenAccessTestable",
  "abi": [
    {
      "constant": true,
      "inputs": [
        {
          "name": "account",
          "type": "address"
        }
      ],
      "name": "isKYCAdmin",
      "outputs": [
        {
          "name": "",
          "type": "bool"
        }
      ],
      "payable": false,
      "stateMutability": "view",
      "type": "function"
    },
    {
      "constant": false,
      "inputs": [],
      "name": "renounceKYCAdmin",
      "outputs": [],
      "payable": false,
      "stateMutability": "nonpayable",
      "type": "function"
    },
    {
      "constant": false,
      "inputs": [
        {
          "name": "account",
          "type": "address"
        }
      ],
      "name": "addKYClisted",
      "outputs": [],
      "payable": false,
      "stateMutability": "nonpayable",
      "type": "function"
    },
    {
      "constant": false,
      "inputs": [],
      "name": "renounceKYClisted",
      "outputs": [],
      "payable": false,
      "stateMutability": "nonpayable",
      "type": "function"
    },
    {
      "constant": false,
      "inputs": [],
      "name": "renounceOwnership",
      "outputs": [],
      "payable": false,
      "stateMutability": "nonpayable",
      "type": "function"
    },
    {
      "constant": false,
      "inputs": [
        {
          "name": "account",
          "type": "address"
        }
      ],
      "name": "removeKYClisted",
      "outputs": [],
      "payable": false,
      "stateMutability": "nonpayable",
      "type": "function"
    },
    {
      "constant": true,
      "inputs": [],
      "name": "owner",
      "outputs": [
        {
          "name": "",
          "type": "address"
        }
      ],
      "payable": false,
      "stateMutability": "view",
      "type": "function"
    },
    {
      "constant": true,
      "inputs": [],
      "name": "isOwner",
      "outputs": [
        {
          "name": "",
          "type": "bool"
        }
      ],
      "payable": false,
      "stateMutability": "view",
      "type": "function"
    },
    {
      "constant": false,
      "inputs": [
        {
          "name": "account",
          "type": "address"
        }
      ],
      "name": "addKYCAdmin",
      "outputs": [],
      "payable": false,
      "stateMutability": "nonpayable",
      "type": "function"
    },
    {
      "constant": true,
      "inputs": [
        {
          "name": "account",
          "type": "address"
        }
      ],
      "name": "isKYClisted",
      "outputs": [
        {
          "name": "",
          "type": "bool"
        }
      ],
      "payable": false,
      "stateMutability": "view",
      "type": "function"
    },
    {
      "constant": true,
      "inputs": [
        {
          "name": "investorAddress",
          "type": "address"
        }
      ],
      "name": "isFreeInvestor",
      "outputs": [
        {
          "name": "",
          "type": "bool"
        }
      ],
      "payable": false,
      "stateMutability": "view",
      "type": "function"
    },
    {
      "constant": false,
      "inputs": [
        {
          "name": "account",
          "type": "address"
        }
      ],
      "name": "removeKYCAdmin",
      "outputs": [],
      "payable": false,
      "stateMutability": "nonpayable",
      "type": "function"
    },
    {
      "constant": false,
      "inputs": [
        {
          "name": "newOwner",
          "type": "address"
        }
      ],
      "name": "transferOwnership",
      "outputs": [],
      "payable": false,
      "stateMutability": "nonpayable",
      "type": "function"
    },
    {
      "anonymous": false,
      "inputs": [
        {
          "indexed": true,
          "name": "account",
          "type": "address"
        }
      ],
      "name": "KYClistedAdded",
      "type": "event"
    },
    {
      "anonymous": false,
      "inputs": [
        {
          "indexed": true,
          "name": "account",
          "type": "address"
        }
      ],
      "name": "KYClistedRemoved",
      "type": "event"
    },
    {
      "anonymous": false,
      "inputs": [
        {
          "indexed": true,
          "name": "account",
          "type": "address"
        }
      ],
      "name": "KYCAdminAdded",
      "type": "event"
    },
    {
      "anonymous": false,
      "inputs": [
        {
          "indexed": true,
          "name": "account",
          "type": "address"
        }
      ],
      "name": "KYCAdminRemoved",
      "type": "event"
    },
    {
      "anonymous": false,
      "inputs": [
        {
          "indexed": true,
          "name": "previousOwner",
          "type": "address"
        },
        {
          "indexed": true,
          "name": "newOwner",
          "type": "address"
        }
      ],
      "name": "OwnershipTransferred",
      "type": "event"
    },
    {
      "constant": true,
      "inputs": [
        {
          "name": "account",
          "type": "address"
        }
      ],
      "name": "test_isKYCAdmin",
      "outputs": [
        {
          "name": "",
          "type": "bool"
        }
      ],
      "payable": false,
      "stateMutability": "view",
      "type": "function"
    },
    {
      "constant": false,
      "inputs": [
        {
          "name": "account",
          "type": "address"
        }
      ],
      "name": "test_removeKYCAdmin",
      "outputs": [],
      "payable": false,
      "stateMutability": "nonpayable",
      "type": "function"
    },
    {
      "constant": true,
      "inputs": [
        {
          "name": "_investorAddress",
          "type": "address"
        }
      ],
      "name": "test_isFreeInvestor",
      "outputs": [
        {
          "name": "",
          "type": "bool"
        }
      ],
      "payable": false,
      "stateMutability": "view",
      "type": "function"
    }
  ],
  "bytecode": "0x60806040819052600080546001600160a01b03191633178082556001600160a01b0316917f8be0079c531659141344cd1fd0a4f28419497f9722a3daafe3b4186f6b6457e0908290a36100573361005c60201b60201c565b610132565b6100748160016100ab60201b6106501790919060201c565b6040516001600160a01b038216907f6ef188d34b8fac4126790bd81059831348a92504fa4f99a97c9958a1749c63bc90600090a250565b6001600160a01b0381166100be57600080fd5b6100ce82826100fd60201b60201c565b156100d857600080fd5b6001600160a01b0316600090815260209190915260409020805460ff19166001179055565b60006001600160a01b03821661011257600080fd5b506001600160a01b03166000908152602091909152604090205460ff1690565b610710806101416000396000f3fe608060405234801561001057600080fd5b50600436106101005760003560e01c80638da5cb5b11610097578063bc7c9e6811610066578063bc7c9e6814610269578063c2282f771461028f578063d92a6cf6146102b5578063f2fde38b146102db57610100565b80638da5cb5b146101f15780638f32d59b146102155780638fd600041461021d578063a2d5027a1461024357610100565b80635b4e3f3d116100d35780635b4e3f3d14610195578063715018a61461019d5780637696f416146101a5578063878131d8146101cb57610100565b806312f25343146101055780631548dbc81461013f5780632c1019221461014957806352bb229b1461016f575b600080fd5b61012b6004803603602081101561011b57600080fd5b50356001600160a01b0316610301565b604080519115158252519081900360200190f35b61014761031a565b005b6101476004803603602081101561015f57600080fd5b50356001600160a01b0316610325565b6101476004803603602081101561018557600080fd5b50356001600160a01b0316610343565b61014761034c565b610147610355565b610147600480360360208110156101bb57600080fd5b50356001600160a01b03166103b0565b61012b600480360360208110156101e157600080fd5b50356001600160a01b03166103cb565b6101f96103d6565b604080516001600160a01b039092168252519081900360200190f35b61012b6103e5565b6101476004803603602081101561023357600080fd5b50356001600160a01b03166103f6565b61012b6004803603602081101561025957600080fd5b50356001600160a01b0316610410565b61012b6004803603602081101561027f57600080fd5b50356001600160a01b0316610423565b61012b600480360360208110156102a557600080fd5b50356001600160a01b031661042a565b610147600480360360208110156102cb57600080fd5b50356001600160a01b0316610435565b610147600480360360208110156102f157600080fd5b50356001600160a01b031661044f565b600061031460018363ffffffff61046916565b92915050565b6103233361049e565b565b61032e33610301565b61033757600080fd5b610340816104e6565b50565b61034081610435565b6103233361052e565b61035d6103e5565b61036657600080fd5b600080546040516001600160a01b03909116907f8be0079c531659141344cd1fd0a4f28419497f9722a3daafe3b4186f6b6457e0908390a3600080546001600160a01b0319169055565b6103b933610301565b6103c257600080fd5b6103408161052e565b600061031482610301565b6000546001600160a01b031690565b6000546001600160a01b0316331490565b6103fe6103e5565b61040757600080fd5b61034081610576565b600061031460028363ffffffff61046916565b6000610314825b600061031482610410565b61043d6103e5565b61044657600080fd5b61034081610591565b6104576103e5565b61046057600080fd5b6103408161059a565b60006001600160a01b03821661047e57600080fd5b506001600160a01b03166000908152602091909152604090205460ff1690565b6104af60018263ffffffff61060816565b6040516001600160a01b038216907fe989c3ea74e8447b86355ca10e7b910a5ea9931330517c33e3002727f5e95ee890600090a250565b6104f760028263ffffffff61065016565b6040516001600160a01b038216907f5a85c934d044d4af54e45ef3efa70919b2301fe806a7b570e09d7e0f90a4445a90600090a250565b61053f60028263ffffffff61060816565b6040516001600160a01b038216907fbc6a411073357cff5bee0c71e7722c8fd47b5a40591adcedeaac84bd10c0736890600090a250565b61057f33610301565b61058857600080fd5b6103408161069c565b6103408161049e565b6001600160a01b0381166105ad57600080fd5b600080546040516001600160a01b03808516939216917f8be0079c531659141344cd1fd0a4f28419497f9722a3daafe3b4186f6b6457e091a3600080546001600160a01b0319166001600160a01b0392909216919091179055565b6001600160a01b03811661061b57600080fd5b6106258282610469565b61062e57600080fd5b6001600160a01b0316600090815260209190915260409020805460ff19169055565b6001600160a01b03811661066357600080fd5b61066d8282610469565b1561067757600080fd5b6001600160a01b0316600090815260209190915260409020805460ff19166001179055565b6106ad60018263ffffffff61065016565b6040516001600160a01b038216907f6ef188d34b8fac4126790bd81059831348a92504fa4f99a97c9958a1749c63bc90600090a25056fea165627a7a72305820f1b97493f37a3243ff56dc217fe010acbba13d39f84b80ca8b43ba25d504fa7c0029",
  "source": "pragma solidity ^0.5.7;\n\nimport \"../WhiteListTokenAccess.sol\";\n\n/**\n * A testable version for RegulationDTokenAccess\n */\ncontract WhiteListTokenAccessTestable is WhiteListTokenAccess{\n\n  /**\n   * Check if address is KYC admin or owner\n   * @param account the address to verify\n   */\n  function test_isKYCAdmin(address account) public view returns (bool) {\n      return super.isKYCAdmin(account);\n  }\n\n  /**\n   * Remove a kyc admin\n   * @param account the address to remove\n   */\n  function test_removeKYCAdmin(address account) public {\n      super.removeKYCAdmin(account);\n  }\n\n  /**\n   * Check if the investor is KYC approved and also accredited\n   * @param _investorAddress the investor address\n   */\n  function test_isFreeInvestor(address _investorAddress) public view returns (bool) {\n    return super.isFreeInvestor(_investorAddress);\n  }\n\n}\n",
  "sourcePath": "C:/Users/Noam/BCS/stellero/Dev/StellerroToken/contracts/testables/WhiteListTokenAccessTestable.sol",
  "compiler": {
    "name": "solc",
    "version": "0.5.8+commit.23d335f2.Emscripten.clang"
  },
  "schemaVersion": "3.0.11",
  "updatedAt": "2019-06-29T19:45:46.124Z",
  "devdoc": {
    "methods": {
      "addKYCAdmin(address)": {
        "params": {
          "account": "the address to add"
        }
      },
      "isFreeInvestor(address)": {
        "params": {
          "investorAddress": "the investor address"
        }
      },
      "isOwner()": {
        "return": "true if `msg.sender` is the owner of the contract."
      },
      "owner()": {
        "return": "the address of the owner."
      },
      "removeKYCAdmin(address)": {
        "params": {
          "account": "the address to remove"
        }
      },
      "renounceOwnership()": {
        "details": "Allows the current owner to relinquish control of the contract."
      },
      "test_isFreeInvestor(address)": {
        "params": {
          "_investorAddress": "the investor address"
        }
      },
      "test_isKYCAdmin(address)": {
        "params": {
          "account": "the address to verify"
        }
      },
      "test_removeKYCAdmin(address)": {
        "params": {
          "account": "the address to remove"
        }
      },
      "transferOwnership(address)": {
        "details": "Allows the current owner to transfer control of the contract to a newOwner.",
        "params": {
          "newOwner": "The address to transfer ownership to."
        }
      }
    }
  },
  "userdoc": {
    "methods": {
      "addKYCAdmin(address)": {
        "notice": "Add a kyc admin"
      },
      "isFreeInvestor(address)": {
        "notice": "Check if the investor is KYC approved and also accredited"
      },
      "removeKYCAdmin(address)": {
        "notice": "Remove a kyc admin"
      },
      "renounceOwnership()": {
        "notice": "Renouncing to ownership will leave the contract without an owner. It will not be possible to call the functions with the `onlyOwner` modifier anymore."
      },
      "test_isFreeInvestor(address)": {
        "notice": "Check if the investor is KYC approved and also accredited"
      },
      "test_isKYCAdmin(address)": {
        "notice": "Check if address is KYC admin or owner"
      },
      "test_removeKYCAdmin(address)": {
        "notice": "Remove a kyc admin"
      }
    },
    "notice": "A testable version for RegulationDTokenAccess"
  }
}