{
  "contractName": "WhiteListToken",
  "abi": [
    {
      "constant": true,
      "inputs": [],
      "name": "mintingFinished",
      "outputs": [
        {
          "name": "",
          "type": "bool"
        }
      ],
      "payable": false,
      "stateMutability": "view",
      "type": "function"
    },
    {
      "constant": false,
      "inputs": [
        {
          "name": "spender",
          "type": "address"
        },
        {
          "name": "value",
          "type": "uint256"
        }
      ],
      "name": "approve",
      "outputs": [
        {
          "name": "",
          "type": "bool"
        }
      ],
      "payable": false,
      "stateMutability": "nonpayable",
      "type": "function"
    },
    {
      "constant": true,
      "inputs": [
        {
          "name": "account",
          "type": "address"
        }
      ],
      "name": "isKYCAdmin",
      "outputs": [
        {
          "name": "",
          "type": "bool"
        }
      ],
      "payable": false,
      "stateMutability": "view",
      "type": "function"
    },
    {
      "constant": false,
      "inputs": [],
      "name": "renounceKYCAdmin",
      "outputs": [],
      "payable": false,
      "stateMutability": "nonpayable",
      "type": "function"
    },
    {
      "constant": true,
      "inputs": [],
      "name": "totalSupply",
      "outputs": [
        {
          "name": "",
          "type": "uint256"
        }
      ],
      "payable": false,
      "stateMutability": "view",
      "type": "function"
    },
    {
      "constant": false,
      "inputs": [
        {
          "name": "account",
          "type": "address"
        }
      ],
      "name": "addKYClisted",
      "outputs": [],
      "payable": false,
      "stateMutability": "nonpayable",
      "type": "function"
    },
    {
      "constant": true,
      "inputs": [],
      "name": "cap",
      "outputs": [
        {
          "name": "",
          "type": "uint256"
        }
      ],
      "payable": false,
      "stateMutability": "view",
      "type": "function"
    },
    {
      "constant": false,
      "inputs": [
        {
          "name": "spender",
          "type": "address"
        },
        {
          "name": "addedValue",
          "type": "uint256"
        }
      ],
      "name": "increaseAllowance",
      "outputs": [
        {
          "name": "",
          "type": "bool"
        }
      ],
      "payable": false,
      "stateMutability": "nonpayable",
      "type": "function"
    },
    {
      "constant": false,
      "inputs": [],
      "name": "renounceKYClisted",
      "outputs": [],
      "payable": false,
      "stateMutability": "nonpayable",
      "type": "function"
    },
    {
      "constant": true,
      "inputs": [
        {
          "name": "owner",
          "type": "address"
        }
      ],
      "name": "balanceOf",
      "outputs": [
        {
          "name": "",
          "type": "uint256"
        }
      ],
      "payable": false,
      "stateMutability": "view",
      "type": "function"
    },
    {
      "constant": false,
      "inputs": [],
      "name": "renounceOwnership",
      "outputs": [],
      "payable": false,
      "stateMutability": "nonpayable",
      "type": "function"
    },
    {
      "constant": false,
      "inputs": [
        {
          "name": "account",
          "type": "address"
        }
      ],
      "name": "removeKYClisted",
      "outputs": [],
      "payable": false,
      "stateMutability": "nonpayable",
      "type": "function"
    },
    {
      "constant": true,
      "inputs": [],
      "name": "owner",
      "outputs": [
        {
          "name": "",
          "type": "address"
        }
      ],
      "payable": false,
      "stateMutability": "view",
      "type": "function"
    },
    {
      "constant": true,
      "inputs": [],
      "name": "isOwner",
      "outputs": [
        {
          "name": "",
          "type": "bool"
        }
      ],
      "payable": false,
      "stateMutability": "view",
      "type": "function"
    },
    {
      "constant": false,
      "inputs": [
        {
          "name": "account",
          "type": "address"
        }
      ],
      "name": "addKYCAdmin",
      "outputs": [],
      "payable": false,
      "stateMutability": "nonpayable",
      "type": "function"
    },
    {
      "constant": false,
      "inputs": [
        {
          "name": "account",
          "type": "address"
        }
      ],
      "name": "addMinter",
      "outputs": [],
      "payable": false,
      "stateMutability": "nonpayable",
      "type": "function"
    },
    {
      "constant": false,
      "inputs": [],
      "name": "renounceMinter",
      "outputs": [],
      "payable": false,
      "stateMutability": "nonpayable",
      "type": "function"
    },
    {
      "constant": true,
      "inputs": [
        {
          "name": "account",
          "type": "address"
        }
      ],
      "name": "isKYClisted",
      "outputs": [
        {
          "name": "",
          "type": "bool"
        }
      ],
      "payable": false,
      "stateMutability": "view",
      "type": "function"
    },
    {
      "constant": false,
      "inputs": [
        {
          "name": "spender",
          "type": "address"
        },
        {
          "name": "subtractedValue",
          "type": "uint256"
        }
      ],
      "name": "decreaseAllowance",
      "outputs": [
        {
          "name": "",
          "type": "bool"
        }
      ],
      "payable": false,
      "stateMutability": "nonpayable",
      "type": "function"
    },
    {
      "constant": true,
      "inputs": [
        {
          "name": "account",
          "type": "address"
        }
      ],
      "name": "isMinter",
      "outputs": [
        {
          "name": "",
          "type": "bool"
        }
      ],
      "payable": false,
      "stateMutability": "view",
      "type": "function"
    },
    {
      "constant": true,
      "inputs": [
        {
          "name": "investorAddress",
          "type": "address"
        }
      ],
      "name": "isFreeInvestor",
      "outputs": [
        {
          "name": "",
          "type": "bool"
        }
      ],
      "payable": false,
      "stateMutability": "view",
      "type": "function"
    },
    {
      "constant": false,
      "inputs": [
        {
          "name": "account",
          "type": "address"
        }
      ],
      "name": "removeKYCAdmin",
      "outputs": [],
      "payable": false,
      "stateMutability": "nonpayable",
      "type": "function"
    },
    {
      "constant": true,
      "inputs": [
        {
          "name": "owner",
          "type": "address"
        },
        {
          "name": "spender",
          "type": "address"
        }
      ],
      "name": "allowance",
      "outputs": [
        {
          "name": "",
          "type": "uint256"
        }
      ],
      "payable": false,
      "stateMutability": "view",
      "type": "function"
    },
    {
      "constant": false,
      "inputs": [
        {
          "name": "newOwner",
          "type": "address"
        }
      ],
      "name": "transferOwnership",
      "outputs": [],
      "payable": false,
      "stateMutability": "nonpayable",
      "type": "function"
    },
    {
      "inputs": [
        {
          "name": "cap",
          "type": "uint256"
        }
      ],
      "payable": false,
      "stateMutability": "nonpayable",
      "type": "constructor"
    },
    {
      "anonymous": false,
      "inputs": [],
      "name": "MintFinished",
      "type": "event"
    },
    {
      "anonymous": false,
      "inputs": [
        {
          "indexed": true,
          "name": "from",
          "type": "address"
        },
        {
          "indexed": true,
          "name": "to",
          "type": "address"
        },
        {
          "indexed": false,
          "name": "value",
          "type": "uint256"
        }
      ],
      "name": "Restore",
      "type": "event"
    },
    {
      "anonymous": false,
      "inputs": [
        {
          "indexed": true,
          "name": "account",
          "type": "address"
        }
      ],
      "name": "MinterAdded",
      "type": "event"
    },
    {
      "anonymous": false,
      "inputs": [
        {
          "indexed": true,
          "name": "account",
          "type": "address"
        }
      ],
      "name": "MinterRemoved",
      "type": "event"
    },
    {
      "anonymous": false,
      "inputs": [
        {
          "indexed": true,
          "name": "from",
          "type": "address"
        },
        {
          "indexed": true,
          "name": "to",
          "type": "address"
        },
        {
          "indexed": false,
          "name": "value",
          "type": "uint256"
        }
      ],
      "name": "Transfer",
      "type": "event"
    },
    {
      "anonymous": false,
      "inputs": [
        {
          "indexed": true,
          "name": "owner",
          "type": "address"
        },
        {
          "indexed": true,
          "name": "spender",
          "type": "address"
        },
        {
          "indexed": false,
          "name": "value",
          "type": "uint256"
        }
      ],
      "name": "Approval",
      "type": "event"
    },
    {
      "anonymous": false,
      "inputs": [
        {
          "indexed": true,
          "name": "account",
          "type": "address"
        }
      ],
      "name": "KYClistedAdded",
      "type": "event"
    },
    {
      "anonymous": false,
      "inputs": [
        {
          "indexed": true,
          "name": "account",
          "type": "address"
        }
      ],
      "name": "KYClistedRemoved",
      "type": "event"
    },
    {
      "anonymous": false,
      "inputs": [
        {
          "indexed": true,
          "name": "account",
          "type": "address"
        }
      ],
      "name": "KYCAdminAdded",
      "type": "event"
    },
    {
      "anonymous": false,
      "inputs": [
        {
          "indexed": true,
          "name": "account",
          "type": "address"
        }
      ],
      "name": "KYCAdminRemoved",
      "type": "event"
    },
    {
      "anonymous": false,
      "inputs": [
        {
          "indexed": true,
          "name": "previousOwner",
          "type": "address"
        },
        {
          "indexed": true,
          "name": "newOwner",
          "type": "address"
        }
      ],
      "name": "OwnershipTransferred",
      "type": "event"
    },
    {
      "constant": false,
      "inputs": [],
      "name": "finishMinting",
      "outputs": [
        {
          "name": "",
          "type": "bool"
        }
      ],
      "payable": false,
      "stateMutability": "nonpayable",
      "type": "function"
    },
    {
      "constant": false,
      "inputs": [
        {
          "name": "to",
          "type": "address"
        },
        {
          "name": "value",
          "type": "uint256"
        }
      ],
      "name": "mint",
      "outputs": [
        {
          "name": "",
          "type": "bool"
        }
      ],
      "payable": false,
      "stateMutability": "nonpayable",
      "type": "function"
    },
    {
      "constant": false,
      "inputs": [
        {
          "name": "to",
          "type": "address"
        },
        {
          "name": "value",
          "type": "uint256"
        }
      ],
      "name": "approveAndMint",
      "outputs": [
        {
          "name": "",
          "type": "bool"
        }
      ],
      "payable": false,
      "stateMutability": "nonpayable",
      "type": "function"
    },
    {
      "constant": false,
      "inputs": [
        {
          "name": "from",
          "type": "address"
        },
        {
          "name": "to",
          "type": "address"
        },
        {
          "name": "value",
          "type": "uint256"
        }
      ],
      "name": "transferFrom",
      "outputs": [
        {
          "name": "",
          "type": "bool"
        }
      ],
      "payable": false,
      "stateMutability": "nonpayable",
      "type": "function"
    },
    {
      "constant": false,
      "inputs": [
        {
          "name": "to",
          "type": "address"
        },
        {
          "name": "value",
          "type": "uint256"
        }
      ],
      "name": "transfer",
      "outputs": [
        {
          "name": "",
          "type": "bool"
        }
      ],
      "payable": false,
      "stateMutability": "nonpayable",
      "type": "function"
    },
    {
      "constant": false,
      "inputs": [
        {
          "name": "value",
          "type": "uint256"
        }
      ],
      "name": "burn",
      "outputs": [],
      "payable": false,
      "stateMutability": "nonpayable",
      "type": "function"
    },
    {
      "constant": false,
      "inputs": [
        {
          "name": "from",
          "type": "address"
        },
        {
          "name": "value",
          "type": "uint256"
        }
      ],
      "name": "burnFrom",
      "outputs": [],
      "payable": false,
      "stateMutability": "nonpayable",
      "type": "function"
    },
    {
      "constant": false,
      "inputs": [
        {
          "name": "from",
          "type": "address"
        },
        {
          "name": "to",
          "type": "address"
        }
      ],
      "name": "restoreTokens",
      "outputs": [
        {
          "name": "",
          "type": "bool"
        }
      ],
      "payable": false,
      "stateMutability": "nonpayable",
      "type": "function"
    }
  ],
  "bytecode": "0x60806040526008805460ff191690553480156200001b57600080fd5b506040516020806200161a833981018060405260208110156200003d57600080fd5b5051600080546001600160a01b031916331780825560405183926001600160a01b039290921691907f8be0079c531659141344cd1fd0a4f28419497f9722a3daafe3b4186f6b6457e0908290a36200009b33620000c460201b60201c565b620000ac336200011660201b60201c565b60008111620000ba57600080fd5b60075550620001f4565b620000df8160016200016860201b620010b71790919060201c565b6040516001600160a01b038216907f6ef188d34b8fac4126790bd81059831348a92504fa4f99a97c9958a1749c63bc90600090a250565b620001318160066200016860201b620010b71790919060201c565b6040516001600160a01b038216907f6ae172837ea30b801fbfcdd4108aa1d5bf8ff775444fd70256b44e6bf3dfc3f690600090a250565b6001600160a01b0381166200017c57600080fd5b6200018e8282620001be60201b60201c565b156200019957600080fd5b6001600160a01b0316600090815260209190915260409020805460ff19166001179055565b60006001600160a01b038216620001d457600080fd5b506001600160a01b03166000908152602091909152604090205460ff1690565b61141680620002046000396000f3fe608060405234801561001057600080fd5b50600436106101f05760003560e01c80637d64bcb41161010f578063a457c2d7116100a2578063c6416f4c11610071578063c6416f4c14610566578063d92a6cf614610594578063dd62ed3e146105ba578063f2fde38b146105e8576101f0565b8063a457c2d7146104c2578063a9059cbb146104ee578063aa271e1a1461051a578063c2282f7714610540576101f0565b80638fd60004116100de5780638fd6000414610448578063983b2d561461046e5780639865027514610494578063a2d5027a1461049c576101f0565b80637d64bcb4146103e85780638aa0ddc8146103f05780638da5cb5b1461041c5780638f32d59b14610440576101f0565b8063395093511161018757806370a082311161015657806370a0823114610368578063715018a61461038e5780637696f4161461039657806379cc6790146103bc576101f0565b806339509351146102eb57806340c10f191461031757806342966c68146103435780635b4e3f3d14610360576101f0565b806318160ddd116101c357806318160ddd1461026d57806323b872dd146102875780632c101922146102bd578063355274ea146102e3576101f0565b806305d2035b146101f5578063095ea7b31461021157806312f253431461023d5780631548dbc814610263575b600080fd5b6101fd61060e565b604080519115158252519081900360200190f35b6101fd6004803603604081101561022757600080fd5b506001600160a01b038135169060200135610617565b6101fd6004803603602081101561025357600080fd5b50356001600160a01b0316610681565b61026b61069a565b005b6102756106a5565b60408051918252519081900360200190f35b6101fd6004803603606081101561029d57600080fd5b506001600160a01b038135811691602081013590911690604001356106ab565b61026b600480360360208110156102d357600080fd5b50356001600160a01b031661075e565b61027561077c565b6101fd6004803603604081101561030157600080fd5b506001600160a01b038135169060200135610782565b6101fd6004803603604081101561032d57600080fd5b506001600160a01b03813516906020013561081e565b61026b6004803603602081101561035957600080fd5b5035610856565b61026b610870565b6102756004803603602081101561037e57600080fd5b50356001600160a01b0316610879565b61026b610894565b61026b600480360360208110156103ac57600080fd5b50356001600160a01b03166108ef565b61026b600480360360408110156103d257600080fd5b506001600160a01b03813516906020013561090a565b6101fd610929565b6101fd6004803603604081101561040657600080fd5b506001600160a01b038135169060200135610988565b6104246109b5565b604080516001600160a01b039092168252519081900360200190f35b6101fd6109c4565b61026b6004803603602081101561045e57600080fd5b50356001600160a01b03166109d5565b61026b6004803603602081101561048457600080fd5b50356001600160a01b03166109ef565b61026b610a0a565b6101fd600480360360208110156104b257600080fd5b50356001600160a01b0316610a13565b6101fd600480360360408110156104d857600080fd5b506001600160a01b038135169060200135610a26565b6101fd6004803603604081101561050457600080fd5b506001600160a01b038135169060200135610a6f565b6101fd6004803603602081101561053057600080fd5b50356001600160a01b0316610b20565b6101fd6004803603602081101561055657600080fd5b50356001600160a01b0316610b33565b6101fd6004803603604081101561057c57600080fd5b506001600160a01b0381358116916020013516610b3e565b61026b600480360360208110156105aa57600080fd5b50356001600160a01b0316610be7565b610275600480360360408110156105d057600080fd5b506001600160a01b0381358116916020013516610c01565b61026b600480360360208110156105fe57600080fd5b50356001600160a01b0316610c2c565b60085460ff1681565b60006001600160a01b03831661062c57600080fd5b3360008181526004602090815260408083206001600160a01b03881680855290835292819020869055805186815290519293926000805160206113cb833981519152929181900390910190a350600192915050565b600061069460018363ffffffff610c4616565b92915050565b6106a333610c7b565b565b60055490565b60085460009060ff166106bd57600080fd5b6106c683610cc3565b61070457604051600160e51b62461bcd02815260040180806020018281038252602581526020018061137f6025913960400191505060405180910390fd5b61070d84610cc3565b61074b57604051600160e51b62461bcd0281526004018080602001828103825260278152602001806113a46027913960400191505060405180910390fd5b610756848484610cce565b949350505050565b61076733610681565b61077057600080fd5b61077981610d85565b50565b60075490565b60006001600160a01b03831661079757600080fd5b3360009081526004602090815260408083206001600160a01b03871684529091529020546107cb908363ffffffff610dcd16565b3360008181526004602090815260408083206001600160a01b0389168085529083529281902085905580519485525191936000805160206113cb833981519152929081900390910190a350600192915050565b600061082933610b20565b61083257600080fd5b60085460ff161561084257600080fd5b61084c8383610ddf565b5060019392505050565b61085e6109c4565b61086757600080fd5b61077981610e06565b6106a333610e10565b6001600160a01b031660009081526003602052604090205490565b61089c6109c4565b6108a557600080fd5b600080546040516001600160a01b03909116907f8be0079c531659141344cd1fd0a4f28419497f9722a3daafe3b4186f6b6457e0908390a3600080546001600160a01b0319169055565b6108f833610681565b61090157600080fd5b61077981610e10565b6109126109c4565b61091b57600080fd5b6109258282610e58565b5050565b60006109336109c4565b61093c57600080fd5b60085460ff161561094c57600080fd5b6008805460ff191660011790556040517fae5184fba832cb2b1f702aca6117b8d265eaf03ad33eb133f19dde0f5920fa0890600090a150600190565b600061099333610b20565b61099c57600080fd5b60085460ff16156109ac57600080fd5b6108428361075e565b6000546001600160a01b031690565b6000546001600160a01b0316331490565b6109dd6109c4565b6109e657600080fd5b61077981610e62565b6109f833610b20565b610a0157600080fd5b61077981610e7d565b6106a333610ec5565b600061069460028363ffffffff610c4616565b60006001600160a01b038316610a3b57600080fd5b3360009081526004602090815260408083206001600160a01b03871684529091529020546107cb908363ffffffff610f0d16565b60085460009060ff16610a8157600080fd5b610a8a83610cc3565b610ac857604051600160e51b62461bcd02815260040180806020018281038252602581526020018061137f6025913960400191505060405180910390fd5b610ad133610cc3565b610b0f57604051600160e51b62461bcd0281526004018080602001828103825260278152602001806113a46027913960400191505060405180910390fd5b610b198383610f22565b9392505050565b600061069460068363ffffffff610c4616565b600061069482610a13565b6000610b486109c4565b610b5157600080fd5b6001600160a01b038216610b6457600080fd5b610b6d82610a13565b610b7a57610b7a8261075e565b6000610b8584610879565b9050610b92848483610f2b565b826001600160a01b0316846001600160a01b03167f8d517738b620ddd4757b2c72628ad2ee2e182d8eadaceb727477e0b661e0afad836040518082815260200191505060405180910390a35060019392505050565b610bef6109c4565b610bf857600080fd5b61077981610ff8565b6001600160a01b03918216600090815260046020908152604080832093909416825291909152205490565b610c346109c4565b610c3d57600080fd5b61077981611001565b60006001600160a01b038216610c5b57600080fd5b506001600160a01b03166000908152602091909152604090205460ff1690565b610c8c60018263ffffffff61106f16565b6040516001600160a01b038216907fe989c3ea74e8447b86355ca10e7b910a5ea9931330517c33e3002727f5e95ee890600090a250565b600061069482610b33565b6001600160a01b0383166000908152600460209081526040808320338452909152812054610d02908363ffffffff610f0d16565b6001600160a01b0385166000908152600460209081526040808320338452909152902055610d31848484610f2b565b6001600160a01b0384166000818152600460209081526040808320338085529083529281902054815190815290519293926000805160206113cb833981519152929181900390910190a35060019392505050565b610d9660028263ffffffff6110b716565b6040516001600160a01b038216907f5a85c934d044d4af54e45ef3efa70919b2301fe806a7b570e09d7e0f90a4445a90600090a250565b600082820183811015610b1957600080fd5b6000610dea33610b20565b610df357600080fd5b610dfd8383611103565b50600192915050565b6107793382611133565b610e2160028263ffffffff61106f16565b6040516001600160a01b038216907fbc6a411073357cff5bee0c71e7722c8fd47b5a40591adcedeaac84bd10c0736890600090a250565b61092582826111dc565b610e6b33610681565b610e7457600080fd5b6107798161128c565b610e8e60068263ffffffff6110b716565b6040516001600160a01b038216907f6ae172837ea30b801fbfcdd4108aa1d5bf8ff775444fd70256b44e6bf3dfc3f690600090a250565b610ed660068263ffffffff61106f16565b6040516001600160a01b038216907fe94479a9f7e1952cc78f2d6baab678adc1b772d936c6583def489e524cb6669290600090a250565b600082821115610f1c57600080fd5b50900390565b6000610dfd3384845b6001600160a01b038216610f3e57600080fd5b6001600160a01b038316600090815260036020526040902054610f67908263ffffffff610f0d16565b6001600160a01b038085166000908152600360205260408082209390935590841681522054610f9c908263ffffffff610dcd16565b6001600160a01b0380841660008181526003602090815260409182902094909455805185815290519193928716927fddf252ad1be2c89b69c2b068fc378daa952ba7f163c4a11628f55a4df523b3ef92918290030190a3505050565b61077981610c7b565b6001600160a01b03811661101457600080fd5b600080546040516001600160a01b03808516939216917f8be0079c531659141344cd1fd0a4f28419497f9722a3daafe3b4186f6b6457e091a3600080546001600160a01b0319166001600160a01b0392909216919091179055565b6001600160a01b03811661108257600080fd5b61108c8282610c46565b61109557600080fd5b6001600160a01b0316600090815260209190915260409020805460ff19169055565b6001600160a01b0381166110ca57600080fd5b6110d48282610c46565b156110de57600080fd5b6001600160a01b0316600090815260209190915260409020805460ff19166001179055565b60075461111e826111126106a5565b9063ffffffff610dcd16565b111561112957600080fd5b61092582826112d4565b6001600160a01b03821661114657600080fd5b600554611159908263ffffffff610f0d16565b6005556001600160a01b038216600090815260036020526040902054611185908263ffffffff610f0d16565b6001600160a01b0383166000818152600360209081526040808320949094558351858152935191937fddf252ad1be2c89b69c2b068fc378daa952ba7f163c4a11628f55a4df523b3ef929081900390910190a35050565b6001600160a01b0382166000908152600460209081526040808320338452909152902054611210908263ffffffff610f0d16565b6001600160a01b038316600090815260046020908152604080832033845290915290205561123e8282611133565b6001600160a01b0382166000818152600460209081526040808320338085529083529281902054815190815290519293926000805160206113cb833981519152929181900390910190a35050565b61129d60018263ffffffff6110b716565b6040516001600160a01b038216907f6ef188d34b8fac4126790bd81059831348a92504fa4f99a97c9958a1749c63bc90600090a250565b6001600160a01b0382166112e757600080fd5b6005546112fa908263ffffffff610dcd16565b6005556001600160a01b038216600090815260036020526040902054611326908263ffffffff610dcd16565b6001600160a01b03831660008181526003602090815260408083209490945583518581529351929391927fddf252ad1be2c89b69c2b068fc378daa952ba7f163c4a11628f55a4df523b3ef9281900390910190a3505056fe427579696e6720696e766573746f72206973206e6f7420616c6c6f77656420746f2062757953656c6c696e6720696e766573746f72206973206e6f7420616c6c6f77656420746f2073656c6c8c5be1e5ebec7d5bd14f71427d1e84f3dd0314c0f7b2291e5b200ac8c7c3b925a165627a7a72305820001f65b1a497eff8d55a035fe64ae9e55b3430da2e54d334dcd2ef712adce2d60029",
  "source": "pragma solidity ^0.5.7;\n\nimport \"openzeppelin-solidity/contracts/token/ERC20/ERC20Capped.sol\";\nimport \"openzeppelin-solidity/contracts/token/ERC20/ERC20Burnable.sol\";\nimport \"./WhiteListTokenAccess.sol\";\n\n/**\n * The token adhering a WhiteList rules.\n */\ncontract WhiteListToken is WhiteListTokenAccess, ERC20Capped, ERC20Burnable{\n\n    bool public mintingFinished = false;\n\n    event MintFinished();\n    event Restore(address indexed from, address indexed to, uint256 value);\n\n    modifier canMint() {\n      require(!mintingFinished);\n      _;\n    }\n\n    modifier canTransfer() {\n      require(mintingFinished);\n      _;\n    }\n\n    constructor(uint256 cap) ERC20Capped(cap) public {\n    }\n\n    /**\n     * Check if the investor is allowed to buy tokens\n     * @param investorAddress the investor address\n     */\n    function canInvestorBuy(address investorAddress)  internal view returns (bool){\n      return isFreeInvestor(investorAddress);\n    }\n\n    /**\n     * Check if the investor is allowed to sell tokens\n     * @param investorAddress the investor address\n     */\n    function canInvestorSell(address investorAddress) internal view returns (bool){\n      return isFreeInvestor(investorAddress);\n    }\n\n    /**\n   * @dev Function to stop minting new tokens.\n   * @return True if the operation was successful.\n   */\n    function finishMinting() onlyOwner canMint public returns (bool) {\n      mintingFinished = true;\n      emit MintFinished();\n      return true;\n    }\n\n    function mint(address to, uint256 value) public onlyMinter canMint returns (bool) {\n        super.mint(to, value);\n        return true;\n    }\n\n    function approveAndMint(address to, uint256 value) public onlyMinter canMint returns (bool) {\n        super.addKYClisted(to);\n        super.mint(to, value);\n        return true;\n    }\n\n    /**\n    * @dev Transfer tokens from one address to another\n    * @param from address The address which you want to send tokens from\n    * @param to address The address which you want to transfer to\n    * @param value uint256 the amount of tokens to be transferred\n    */\n    function transferFrom(\n        address from,\n        address to,\n        uint256 value\n    )\n        public\n        canTransfer\n        returns (bool)\n    {\n        require(canInvestorBuy(to), \"Buying investor is not allowed to buy\");\n        require(canInvestorSell(from), \"Selling investor is not allowed to sell\");\n        return super.transferFrom(from,to,value);\n    }\n\n    /**\n    * @dev Transfer token for a specified address\n    * @param to The address to transfer to.\n    * @param value The amount to be transferred.\n    */\n    function transfer(address to, uint256 value) public canTransfer returns (bool) {\n        require(canInvestorBuy(to), \"Buying investor is not allowed to buy\");\n        require(canInvestorSell(msg.sender), \"Selling investor is not allowed to sell\");\n        return super.transfer(to,value);\n    }\n\n    /**\n     * @dev Burns a specific amount of tokens.\n     * @param value The amount of token to be burned.\n     */\n    function burn(uint256 value) onlyOwner public {\n        super.burn(value);\n    }\n\n    /**\n     * @dev Burns a specific amount of tokens from the target address and decrements allowance\n     * @param from address The address which you want to send tokens from\n     * @param value uint256 The amount of token to be burned\n     */\n    function burnFrom(address from, uint256 value) onlyOwner public {\n        super.burnFrom(from, value);\n    }\n\n    /**\n    * @dev restore tokens from one address to another.\n    * to use only in case a user cannot access its token.\n    * @param from address The old user's address\n    * @param to address The new user's address\n    */\n    function restoreTokens(address from, address to) onlyOwner public returns (bool)\n    {\n        require(to != address(0));\n\n        if(!isKYClisted(to)) {\n          addKYClisted(to);\n        }\n        \n        uint256 value = balanceOf(from);\n        _transfer(from, to, value);\n\n        emit Restore(from, to, value);\n        return true;\n    }\n\n}\n",
  "sourcePath": "C:\\Users\\Noam\\BCS\\stellero\\Dev\\StellerroToken\\contracts\\WhiteListToken.sol",
  "compiler": {
    "name": "solc",
    "version": "0.5.8+commit.23d335f2.Emscripten.clang"
  },
  "schemaVersion": "3.0.11",
  "updatedAt": "2019-06-29T19:47:20.770Z",
  "devdoc": {
    "methods": {
      "addKYCAdmin(address)": {
        "params": {
          "account": "the address to add"
        }
      },
      "allowance(address,address)": {
        "details": "Function to check the amount of tokens that an owner allowed to a spender.",
        "params": {
          "owner": "address The address which owns the funds.",
          "spender": "address The address which will spend the funds."
        },
        "return": "A uint256 specifying the amount of tokens still available for the spender."
      },
      "approve(address,uint256)": {
        "details": "Approve the passed address to spend the specified amount of tokens on behalf of msg.sender. Beware that changing an allowance with this method brings the risk that someone may use both the old and the new allowance by unfortunate transaction ordering. One possible solution to mitigate this race condition is to first reduce the spender's allowance to 0 and set the desired value afterwards: https://github.com/ethereum/EIPs/issues/20#issuecomment-263524729",
        "params": {
          "spender": "The address which will spend the funds.",
          "value": "The amount of tokens to be spent."
        }
      },
      "balanceOf(address)": {
        "details": "Gets the balance of the specified address.",
        "params": {
          "owner": "The address to query the balance of."
        },
        "return": "An uint256 representing the amount owned by the passed address."
      },
      "burn(uint256)": {
        "details": "Burns a specific amount of tokens.",
        "params": {
          "value": "The amount of token to be burned."
        }
      },
      "burnFrom(address,uint256)": {
        "details": "Burns a specific amount of tokens from the target address and decrements allowance",
        "params": {
          "from": "address The address which you want to send tokens from",
          "value": "uint256 The amount of token to be burned"
        }
      },
      "cap()": {
        "return": "the cap for the token minting."
      },
      "decreaseAllowance(address,uint256)": {
        "details": "Decrease the amount of tokens that an owner allowed to a spender. approve should be called when allowed_[_spender] == 0. To decrement allowed value is better to use this function to avoid 2 calls (and wait until the first transaction is mined) From MonolithDAO Token.sol Emits an Approval event.",
        "params": {
          "spender": "The address which will spend the funds.",
          "subtractedValue": "The amount of tokens to decrease the allowance by."
        }
      },
      "finishMinting()": {
        "details": "Function to stop minting new tokens.",
        "return": "True if the operation was successful."
      },
      "increaseAllowance(address,uint256)": {
        "details": "Increase the amount of tokens that an owner allowed to a spender. approve should be called when allowed_[_spender] == 0. To increment allowed value is better to use this function to avoid 2 calls (and wait until the first transaction is mined) From MonolithDAO Token.sol Emits an Approval event.",
        "params": {
          "addedValue": "The amount of tokens to increase the allowance by.",
          "spender": "The address which will spend the funds."
        }
      },
      "isFreeInvestor(address)": {
        "params": {
          "investorAddress": "the investor address"
        }
      },
      "isOwner()": {
        "return": "true if `msg.sender` is the owner of the contract."
      },
      "owner()": {
        "return": "the address of the owner."
      },
      "removeKYCAdmin(address)": {
        "params": {
          "account": "the address to remove"
        }
      },
      "renounceOwnership()": {
        "details": "Allows the current owner to relinquish control of the contract."
      },
      "restoreTokens(address,address)": {
        "details": "restore tokens from one address to another. to use only in case a user cannot access its token.",
        "params": {
          "from": "address The old user's address",
          "to": "address The new user's address"
        }
      },
      "totalSupply()": {
        "details": "Total number of tokens in existence"
      },
      "transfer(address,uint256)": {
        "details": "Transfer token for a specified address",
        "params": {
          "to": "The address to transfer to.",
          "value": "The amount to be transferred."
        }
      },
      "transferFrom(address,address,uint256)": {
        "details": "Transfer tokens from one address to another",
        "params": {
          "from": "address The address which you want to send tokens from",
          "to": "address The address which you want to transfer to",
          "value": "uint256 the amount of tokens to be transferred"
        }
      },
      "transferOwnership(address)": {
        "details": "Allows the current owner to transfer control of the contract to a newOwner.",
        "params": {
          "newOwner": "The address to transfer ownership to."
        }
      }
    }
  },
  "userdoc": {
    "methods": {
      "addKYCAdmin(address)": {
        "notice": "Add a kyc admin"
      },
      "isFreeInvestor(address)": {
        "notice": "Check if the investor is KYC approved and also accredited"
      },
      "removeKYCAdmin(address)": {
        "notice": "Remove a kyc admin"
      },
      "renounceOwnership()": {
        "notice": "Renouncing to ownership will leave the contract without an owner. It will not be possible to call the functions with the `onlyOwner` modifier anymore."
      }
    },
    "notice": "The token adhering a WhiteList rules."
  }
}