{
  "contractName": "WhiteListTokenTestable",
  "abi": [
    {
      "constant": true,
      "inputs": [],
      "name": "mintingFinished",
      "outputs": [
        {
          "name": "",
          "type": "bool"
        }
      ],
      "payable": false,
      "stateMutability": "view",
      "type": "function"
    },
    {
      "constant": false,
      "inputs": [
        {
          "name": "spender",
          "type": "address"
        },
        {
          "name": "value",
          "type": "uint256"
        }
      ],
      "name": "approve",
      "outputs": [
        {
          "name": "",
          "type": "bool"
        }
      ],
      "payable": false,
      "stateMutability": "nonpayable",
      "type": "function"
    },
    {
      "constant": true,
      "inputs": [
        {
          "name": "account",
          "type": "address"
        }
      ],
      "name": "isKYCAdmin",
      "outputs": [
        {
          "name": "",
          "type": "bool"
        }
      ],
      "payable": false,
      "stateMutability": "view",
      "type": "function"
    },
    {
      "constant": false,
      "inputs": [],
      "name": "renounceKYCAdmin",
      "outputs": [],
      "payable": false,
      "stateMutability": "nonpayable",
      "type": "function"
    },
    {
      "constant": true,
      "inputs": [],
      "name": "totalSupply",
      "outputs": [
        {
          "name": "",
          "type": "uint256"
        }
      ],
      "payable": false,
      "stateMutability": "view",
      "type": "function"
    },
    {
      "constant": false,
      "inputs": [
        {
          "name": "from",
          "type": "address"
        },
        {
          "name": "to",
          "type": "address"
        },
        {
          "name": "value",
          "type": "uint256"
        }
      ],
      "name": "transferFrom",
      "outputs": [
        {
          "name": "",
          "type": "bool"
        }
      ],
      "payable": false,
      "stateMutability": "nonpayable",
      "type": "function"
    },
    {
      "constant": false,
      "inputs": [
        {
          "name": "account",
          "type": "address"
        }
      ],
      "name": "addKYClisted",
      "outputs": [],
      "payable": false,
      "stateMutability": "nonpayable",
      "type": "function"
    },
    {
      "constant": true,
      "inputs": [],
      "name": "cap",
      "outputs": [
        {
          "name": "",
          "type": "uint256"
        }
      ],
      "payable": false,
      "stateMutability": "view",
      "type": "function"
    },
    {
      "constant": false,
      "inputs": [
        {
          "name": "spender",
          "type": "address"
        },
        {
          "name": "addedValue",
          "type": "uint256"
        }
      ],
      "name": "increaseAllowance",
      "outputs": [
        {
          "name": "",
          "type": "bool"
        }
      ],
      "payable": false,
      "stateMutability": "nonpayable",
      "type": "function"
    },
    {
      "constant": false,
      "inputs": [],
      "name": "unpause",
      "outputs": [],
      "payable": false,
      "stateMutability": "nonpayable",
      "type": "function"
    },
    {
      "constant": false,
      "inputs": [
        {
          "name": "to",
          "type": "address"
        },
        {
          "name": "value",
          "type": "uint256"
        }
      ],
      "name": "mint",
      "outputs": [
        {
          "name": "",
          "type": "bool"
        }
      ],
      "payable": false,
      "stateMutability": "nonpayable",
      "type": "function"
    },
    {
      "constant": false,
      "inputs": [
        {
          "name": "value",
          "type": "uint256"
        }
      ],
      "name": "burn",
      "outputs": [],
      "payable": false,
      "stateMutability": "nonpayable",
      "type": "function"
    },
    {
      "constant": true,
      "inputs": [
        {
          "name": "account",
          "type": "address"
        }
      ],
      "name": "isPauser",
      "outputs": [
        {
          "name": "",
          "type": "bool"
        }
      ],
      "payable": false,
      "stateMutability": "view",
      "type": "function"
    },
    {
      "constant": false,
      "inputs": [],
      "name": "renounceKYClisted",
      "outputs": [],
      "payable": false,
      "stateMutability": "nonpayable",
      "type": "function"
    },
    {
      "constant": true,
      "inputs": [],
      "name": "paused",
      "outputs": [
        {
          "name": "",
          "type": "bool"
        }
      ],
      "payable": false,
      "stateMutability": "view",
      "type": "function"
    },
    {
      "constant": false,
      "inputs": [],
      "name": "renouncePauser",
      "outputs": [],
      "payable": false,
      "stateMutability": "nonpayable",
      "type": "function"
    },
    {
      "constant": true,
      "inputs": [
        {
          "name": "owner",
          "type": "address"
        }
      ],
      "name": "balanceOf",
      "outputs": [
        {
          "name": "",
          "type": "uint256"
        }
      ],
      "payable": false,
      "stateMutability": "view",
      "type": "function"
    },
    {
      "constant": false,
      "inputs": [],
      "name": "renounceOwnership",
      "outputs": [],
      "payable": false,
      "stateMutability": "nonpayable",
      "type": "function"
    },
    {
      "constant": false,
      "inputs": [
        {
          "name": "account",
          "type": "address"
        }
      ],
      "name": "removeKYClisted",
      "outputs": [],
      "payable": false,
      "stateMutability": "nonpayable",
      "type": "function"
    },
    {
      "constant": false,
      "inputs": [
        {
          "name": "from",
          "type": "address"
        },
        {
          "name": "value",
          "type": "uint256"
        }
      ],
      "name": "burnFrom",
      "outputs": [],
      "payable": false,
      "stateMutability": "nonpayable",
      "type": "function"
    },
    {
      "constant": false,
      "inputs": [],
      "name": "finishMinting",
      "outputs": [
        {
          "name": "",
          "type": "bool"
        }
      ],
      "payable": false,
      "stateMutability": "nonpayable",
      "type": "function"
    },
    {
      "constant": false,
      "inputs": [
        {
          "name": "account",
          "type": "address"
        }
      ],
      "name": "addPauser",
      "outputs": [],
      "payable": false,
      "stateMutability": "nonpayable",
      "type": "function"
    },
    {
      "constant": false,
      "inputs": [],
      "name": "pause",
      "outputs": [],
      "payable": false,
      "stateMutability": "nonpayable",
      "type": "function"
    },
    {
      "constant": false,
      "inputs": [
        {
          "name": "to",
          "type": "address"
        },
        {
          "name": "value",
          "type": "uint256"
        }
      ],
      "name": "approveAndMint",
      "outputs": [
        {
          "name": "",
          "type": "bool"
        }
      ],
      "payable": false,
      "stateMutability": "nonpayable",
      "type": "function"
    },
    {
      "constant": true,
      "inputs": [],
      "name": "owner",
      "outputs": [
        {
          "name": "",
          "type": "address"
        }
      ],
      "payable": false,
      "stateMutability": "view",
      "type": "function"
    },
    {
      "constant": true,
      "inputs": [],
      "name": "isOwner",
      "outputs": [
        {
          "name": "",
          "type": "bool"
        }
      ],
      "payable": false,
      "stateMutability": "view",
      "type": "function"
    },
    {
      "constant": false,
      "inputs": [
        {
          "name": "account",
          "type": "address"
        }
      ],
      "name": "addKYCAdmin",
      "outputs": [],
      "payable": false,
      "stateMutability": "nonpayable",
      "type": "function"
    },
    {
      "constant": false,
      "inputs": [
        {
          "name": "account",
          "type": "address"
        }
      ],
      "name": "addMinter",
      "outputs": [],
      "payable": false,
      "stateMutability": "nonpayable",
      "type": "function"
    },
    {
      "constant": false,
      "inputs": [],
      "name": "renounceMinter",
      "outputs": [],
      "payable": false,
      "stateMutability": "nonpayable",
      "type": "function"
    },
    {
      "constant": true,
      "inputs": [
        {
          "name": "account",
          "type": "address"
        }
      ],
      "name": "isKYClisted",
      "outputs": [
        {
          "name": "",
          "type": "bool"
        }
      ],
      "payable": false,
      "stateMutability": "view",
      "type": "function"
    },
    {
      "constant": false,
      "inputs": [
        {
          "name": "spender",
          "type": "address"
        },
        {
          "name": "subtractedValue",
          "type": "uint256"
        }
      ],
      "name": "decreaseAllowance",
      "outputs": [
        {
          "name": "",
          "type": "bool"
        }
      ],
      "payable": false,
      "stateMutability": "nonpayable",
      "type": "function"
    },
    {
      "constant": false,
      "inputs": [
        {
          "name": "to",
          "type": "address"
        },
        {
          "name": "value",
          "type": "uint256"
        }
      ],
      "name": "transfer",
      "outputs": [
        {
          "name": "",
          "type": "bool"
        }
      ],
      "payable": false,
      "stateMutability": "nonpayable",
      "type": "function"
    },
    {
      "constant": true,
      "inputs": [
        {
          "name": "account",
          "type": "address"
        }
      ],
      "name": "isMinter",
      "outputs": [
        {
          "name": "",
          "type": "bool"
        }
      ],
      "payable": false,
      "stateMutability": "view",
      "type": "function"
    },
    {
      "constant": true,
      "inputs": [
        {
          "name": "investorAddress",
          "type": "address"
        }
      ],
      "name": "isFreeInvestor",
      "outputs": [
        {
          "name": "",
          "type": "bool"
        }
      ],
      "payable": false,
      "stateMutability": "view",
      "type": "function"
    },
    {
      "constant": false,
      "inputs": [
        {
          "name": "from",
          "type": "address"
        },
        {
          "name": "to",
          "type": "address"
        }
      ],
      "name": "restoreTokens",
      "outputs": [
        {
          "name": "",
          "type": "bool"
        }
      ],
      "payable": false,
      "stateMutability": "nonpayable",
      "type": "function"
    },
    {
      "constant": false,
      "inputs": [
        {
          "name": "account",
          "type": "address"
        }
      ],
      "name": "removeKYCAdmin",
      "outputs": [],
      "payable": false,
      "stateMutability": "nonpayable",
      "type": "function"
    },
    {
      "constant": true,
      "inputs": [
        {
          "name": "owner",
          "type": "address"
        },
        {
          "name": "spender",
          "type": "address"
        }
      ],
      "name": "allowance",
      "outputs": [
        {
          "name": "",
          "type": "uint256"
        }
      ],
      "payable": false,
      "stateMutability": "view",
      "type": "function"
    },
    {
      "constant": false,
      "inputs": [
        {
          "name": "newOwner",
          "type": "address"
        }
      ],
      "name": "transferOwnership",
      "outputs": [],
      "payable": false,
      "stateMutability": "nonpayable",
      "type": "function"
    },
    {
      "inputs": [
        {
          "name": "cap",
          "type": "uint256"
        }
      ],
      "payable": false,
      "stateMutability": "nonpayable",
      "type": "constructor"
    },
    {
      "anonymous": false,
      "inputs": [],
      "name": "MintFinished",
      "type": "event"
    },
    {
      "anonymous": false,
      "inputs": [
        {
          "indexed": true,
          "name": "from",
          "type": "address"
        },
        {
          "indexed": true,
          "name": "to",
          "type": "address"
        },
        {
          "indexed": false,
          "name": "value",
          "type": "uint256"
        }
      ],
      "name": "Restore",
      "type": "event"
    },
    {
      "anonymous": false,
      "inputs": [
        {
          "indexed": false,
          "name": "account",
          "type": "address"
        }
      ],
      "name": "Paused",
      "type": "event"
    },
    {
      "anonymous": false,
      "inputs": [
        {
          "indexed": false,
          "name": "account",
          "type": "address"
        }
      ],
      "name": "Unpaused",
      "type": "event"
    },
    {
      "anonymous": false,
      "inputs": [
        {
          "indexed": true,
          "name": "account",
          "type": "address"
        }
      ],
      "name": "PauserAdded",
      "type": "event"
    },
    {
      "anonymous": false,
      "inputs": [
        {
          "indexed": true,
          "name": "account",
          "type": "address"
        }
      ],
      "name": "PauserRemoved",
      "type": "event"
    },
    {
      "anonymous": false,
      "inputs": [
        {
          "indexed": true,
          "name": "account",
          "type": "address"
        }
      ],
      "name": "MinterAdded",
      "type": "event"
    },
    {
      "anonymous": false,
      "inputs": [
        {
          "indexed": true,
          "name": "account",
          "type": "address"
        }
      ],
      "name": "MinterRemoved",
      "type": "event"
    },
    {
      "anonymous": false,
      "inputs": [
        {
          "indexed": true,
          "name": "from",
          "type": "address"
        },
        {
          "indexed": true,
          "name": "to",
          "type": "address"
        },
        {
          "indexed": false,
          "name": "value",
          "type": "uint256"
        }
      ],
      "name": "Transfer",
      "type": "event"
    },
    {
      "anonymous": false,
      "inputs": [
        {
          "indexed": true,
          "name": "owner",
          "type": "address"
        },
        {
          "indexed": true,
          "name": "spender",
          "type": "address"
        },
        {
          "indexed": false,
          "name": "value",
          "type": "uint256"
        }
      ],
      "name": "Approval",
      "type": "event"
    },
    {
      "anonymous": false,
      "inputs": [
        {
          "indexed": true,
          "name": "account",
          "type": "address"
        }
      ],
      "name": "KYClistedAdded",
      "type": "event"
    },
    {
      "anonymous": false,
      "inputs": [
        {
          "indexed": true,
          "name": "account",
          "type": "address"
        }
      ],
      "name": "KYClistedRemoved",
      "type": "event"
    },
    {
      "anonymous": false,
      "inputs": [
        {
          "indexed": true,
          "name": "account",
          "type": "address"
        }
      ],
      "name": "KYCAdminAdded",
      "type": "event"
    },
    {
      "anonymous": false,
      "inputs": [
        {
          "indexed": true,
          "name": "account",
          "type": "address"
        }
      ],
      "name": "KYCAdminRemoved",
      "type": "event"
    },
    {
      "anonymous": false,
      "inputs": [
        {
          "indexed": true,
          "name": "previousOwner",
          "type": "address"
        },
        {
          "indexed": true,
          "name": "newOwner",
          "type": "address"
        }
      ],
      "name": "OwnershipTransferred",
      "type": "event"
    },
    {
      "constant": true,
      "inputs": [
        {
          "name": "_investorAddress",
          "type": "address"
        }
      ],
      "name": "test_canInvestorBuy",
      "outputs": [
        {
          "name": "",
          "type": "bool"
        }
      ],
      "payable": false,
      "stateMutability": "view",
      "type": "function"
    },
    {
      "constant": true,
      "inputs": [
        {
          "name": "_investorAddress",
          "type": "address"
        }
      ],
      "name": "test_canInvestorSell",
      "outputs": [
        {
          "name": "",
          "type": "bool"
        }
      ],
      "payable": false,
      "stateMutability": "view",
      "type": "function"
    }
  ],
  "bytecode": "0x60806040526009805461ff00191690553480156200001c57600080fd5b5060405160208062001941833981018060405260208110156200003e57600080fd5b5051600080546001600160a01b0319163317808255604051839283926001600160a01b0316917f8be0079c531659141344cd1fd0a4f28419497f9722a3daafe3b4186f6b6457e0908290a36200009a33620000e060201b60201c565b620000ab336200013260201b60201c565b60008111620000b957600080fd5b600755620000ce3362000184602090811b901c565b50506009805460ff1916905562000262565b620000fb816001620001d660201b620013701790919060201c565b6040516001600160a01b038216907f6ef188d34b8fac4126790bd81059831348a92504fa4f99a97c9958a1749c63bc90600090a250565b6200014d816006620001d660201b620013701790919060201c565b6040516001600160a01b038216907f6ae172837ea30b801fbfcdd4108aa1d5bf8ff775444fd70256b44e6bf3dfc3f690600090a250565b6200019f816008620001d660201b620013701790919060201c565b6040516001600160a01b038216907f6719d08c1888103bea251a4ed56406bd0c3e69723c8a1686e017e7bbe159b6f890600090a250565b6001600160a01b038116620001ea57600080fd5b620001fc82826200022c60201b60201c565b156200020757600080fd5b6001600160a01b0316600090815260209190915260409020805460ff19166001179055565b60006001600160a01b0382166200024257600080fd5b506001600160a01b03166000908152602091909152604090205460ff1690565b6116cf80620002726000396000f3fe608060405234801561001057600080fd5b50600436106102485760003560e01c806379cc67901161013b578063a2d5027a116100b8578063c6416f4c1161007c578063c6416f4c14610650578063d92a6cf61461067e578063dd62ed3e146106a4578063f2453eee14610315578063f2fde38b146106d257610248565b8063a2d5027a14610586578063a457c2d7146105ac578063a9059cbb146105d8578063aa271e1a14610604578063c2282f771461062a57610248565b80638da5cb5b116100ff5780638da5cb5b146105065780638f32d59b1461052a5780638fd6000414610532578063983b2d5614610558578063986502751461057e57610248565b806379cc6790146104785780637d64bcb4146104a457806382dc1ec4146104ac5780638456cb59146104d25780638aa0ddc8146104da57610248565b80633f4ba83a116101c95780635c975abb1161018d5780635c975abb146104145780636ef8d66d1461041c57806370a0823114610424578063715018a61461044a5780637696f4161461045257610248565b80633f4ba83a1461039557806340c10f191461039d57806342966c68146103c957806346fbf68e146103e65780635b4e3f3d1461040c57610248565b806323b872dd1161021057806323b872dd146102df5780632ab17c49146103155780632c1019221461033b578063355274ea14610361578063395093511461036957610248565b806305d2035b1461024d578063095ea7b31461026957806312f25343146102955780631548dbc8146102bb57806318160ddd146102c5575b600080fd5b6102556106f8565b604080519115158252519081900360200190f35b6102556004803603604081101561027f57600080fd5b506001600160a01b038135169060200135610706565b610255600480360360208110156102ab57600080fd5b50356001600160a01b0316610770565b6102c3610789565b005b6102cd610794565b60408051918252519081900360200190f35b610255600480360360608110156102f557600080fd5b506001600160a01b0381358116916020810135909116906040013561079a565b6102556004803603602081101561032b57600080fd5b50356001600160a01b0316610862565b6102c36004803603602081101561035157600080fd5b50356001600160a01b031661086d565b6102cd61088b565b6102556004803603604081101561037f57600080fd5b506001600160a01b038135169060200135610891565b6102c361092d565b610255600480360360408110156103b357600080fd5b506001600160a01b03813516906020013561098d565b6102c3600480360360208110156103df57600080fd5b50356109ca565b610255600480360360208110156103fc57600080fd5b50356001600160a01b03166109e4565b6102c36109f7565b610255610a00565b6102c3610a09565b6102cd6004803603602081101561043a57600080fd5b50356001600160a01b0316610a12565b6102c3610a2d565b6102c36004803603602081101561046857600080fd5b50356001600160a01b0316610a88565b6102c36004803603604081101561048e57600080fd5b506001600160a01b038135169060200135610aa3565b610255610ac2565b6102c3600480360360208110156104c257600080fd5b50356001600160a01b0316610b28565b6102c3610b43565b610255600480360360408110156104f057600080fd5b506001600160a01b038135169060200135610ba7565b61050e610bd9565b604080516001600160a01b039092168252519081900360200190f35b610255610be8565b6102c36004803603602081101561054857600080fd5b50356001600160a01b0316610bf9565b6102c36004803603602081101561056e57600080fd5b50356001600160a01b0316610c13565b6102c3610c2e565b6102556004803603602081101561059c57600080fd5b50356001600160a01b0316610c37565b610255600480360360408110156105c257600080fd5b506001600160a01b038135169060200135610c4a565b610255600480360360408110156105ee57600080fd5b506001600160a01b038135169060200135610c93565b6102556004803603602081101561061a57600080fd5b50356001600160a01b0316610d49565b6102556004803603602081101561064057600080fd5b50356001600160a01b0316610d5c565b6102556004803603604081101561066657600080fd5b506001600160a01b0381358116916020013516610d67565b6102c36004803603602081101561069457600080fd5b50356001600160a01b0316610e10565b6102cd600480360360408110156106ba57600080fd5b506001600160a01b0381358116916020013516610e2a565b6102c3600480360360208110156106e857600080fd5b50356001600160a01b0316610e55565b600954610100900460ff1681565b60006001600160a01b03831661071b57600080fd5b3360008181526004602090815260408083206001600160a01b0388168085529083529281902086905580518681529051929392600080516020611684833981519152929181900390910190a350600192915050565b600061078360018363ffffffff610e6f16565b92915050565b61079233610ea4565b565b60055490565b600954600090610100900460ff166107b157600080fd5b60095460ff16156107c157600080fd5b6107ca83610eec565b61080857604051600160e51b62461bcd0281526004018080602001828103825260258152602001806116386025913960400191505060405180910390fd5b61081184610eec565b61084f57604051600160e51b62461bcd02815260040180806020018281038252602781526020018061165d6027913960400191505060405180910390fd5b61085a848484610ef7565b949350505050565b600061078382610eec565b61087633610770565b61087f57600080fd5b61088881610fae565b50565b60075490565b60006001600160a01b0383166108a657600080fd5b3360009081526004602090815260408083206001600160a01b03871684529091529020546108da908363ffffffff610ff616565b3360008181526004602090815260408083206001600160a01b038916808552908352928190208590558051948552519193600080516020611684833981519152929081900390910190a350600192915050565b610936336109e4565b61093f57600080fd5b60095460ff1661094e57600080fd5b6009805460ff191690556040805133815290517f5db9ee0a495bf2e6ff9c91a7834c1ba4fdd244a5e8aa4e537bd38aeae4b073aa9181900360200190a1565b600061099833610d49565b6109a157600080fd5b600954610100900460ff16156109b657600080fd5b6109c08383611008565b5060019392505050565b6109d2610be8565b6109db57600080fd5b6108888161102f565b600061078360088363ffffffff610e6f16565b61079233611039565b60095460ff1690565b61079233611081565b6001600160a01b031660009081526003602052604090205490565b610a35610be8565b610a3e57600080fd5b600080546040516001600160a01b03909116907f8be0079c531659141344cd1fd0a4f28419497f9722a3daafe3b4186f6b6457e0908390a3600080546001600160a01b0319169055565b610a9133610770565b610a9a57600080fd5b61088881611039565b610aab610be8565b610ab457600080fd5b610abe82826110c9565b5050565b6000610acc610be8565b610ad557600080fd5b600954610100900460ff1615610aea57600080fd5b6009805461ff0019166101001790556040517fae5184fba832cb2b1f702aca6117b8d265eaf03ad33eb133f19dde0f5920fa0890600090a150600190565b610b31336109e4565b610b3a57600080fd5b610888816110d3565b610b4c336109e4565b610b5557600080fd5b60095460ff1615610b6557600080fd5b6009805460ff191660011790556040805133815290517f62e78cea01bee320cd4e420270b5ea74000d11b0c9f74754ebdbfc544b05a2589181900360200190a1565b6000610bb233610d49565b610bbb57600080fd5b600954610100900460ff1615610bd057600080fd5b6109b68361086d565b6000546001600160a01b031690565b6000546001600160a01b0316331490565b610c01610be8565b610c0a57600080fd5b6108888161111b565b610c1c33610d49565b610c2557600080fd5b61088881611136565b6107923361117e565b600061078360028363ffffffff610e6f16565b60006001600160a01b038316610c5f57600080fd5b3360009081526004602090815260408083206001600160a01b03871684529091529020546108da908363ffffffff6111c616565b600954600090610100900460ff16610caa57600080fd5b610cb383610eec565b610cf157604051600160e51b62461bcd0281526004018080602001828103825260258152602001806116386025913960400191505060405180910390fd5b610cfa33610eec565b610d3857604051600160e51b62461bcd02815260040180806020018281038252602781526020018061165d6027913960400191505060405180910390fd5b610d4283836111db565b9392505050565b600061078360068363ffffffff610e6f16565b600061078382610c37565b6000610d71610be8565b610d7a57600080fd5b6001600160a01b038216610d8d57600080fd5b610d9682610c37565b610da357610da38261086d565b6000610dae84610a12565b9050610dbb8484836111e4565b826001600160a01b0316846001600160a01b03167f8d517738b620ddd4757b2c72628ad2ee2e182d8eadaceb727477e0b661e0afad836040518082815260200191505060405180910390a35060019392505050565b610e18610be8565b610e2157600080fd5b610888816112b1565b6001600160a01b03918216600090815260046020908152604080832093909416825291909152205490565b610e5d610be8565b610e6657600080fd5b610888816112ba565b60006001600160a01b038216610e8457600080fd5b506001600160a01b03166000908152602091909152604090205460ff1690565b610eb560018263ffffffff61132816565b6040516001600160a01b038216907fe989c3ea74e8447b86355ca10e7b910a5ea9931330517c33e3002727f5e95ee890600090a250565b600061078382610d5c565b6001600160a01b0383166000908152600460209081526040808320338452909152812054610f2b908363ffffffff6111c616565b6001600160a01b0385166000908152600460209081526040808320338452909152902055610f5a8484846111e4565b6001600160a01b038416600081815260046020908152604080832033808552908352928190205481519081529051929392600080516020611684833981519152929181900390910190a35060019392505050565b610fbf60028263ffffffff61137016565b6040516001600160a01b038216907f5a85c934d044d4af54e45ef3efa70919b2301fe806a7b570e09d7e0f90a4445a90600090a250565b600082820183811015610d4257600080fd5b600061101333610d49565b61101c57600080fd5b61102683836113bc565b50600192915050565b61088833826113ec565b61104a60028263ffffffff61132816565b6040516001600160a01b038216907fbc6a411073357cff5bee0c71e7722c8fd47b5a40591adcedeaac84bd10c0736890600090a250565b61109260088263ffffffff61132816565b6040516001600160a01b038216907fcd265ebaf09df2871cc7bd4133404a235ba12eff2041bb89d9c714a2621c7c7e90600090a250565b610abe8282611495565b6110e460088263ffffffff61137016565b6040516001600160a01b038216907f6719d08c1888103bea251a4ed56406bd0c3e69723c8a1686e017e7bbe159b6f890600090a250565b61112433610770565b61112d57600080fd5b61088881611545565b61114760068263ffffffff61137016565b6040516001600160a01b038216907f6ae172837ea30b801fbfcdd4108aa1d5bf8ff775444fd70256b44e6bf3dfc3f690600090a250565b61118f60068263ffffffff61132816565b6040516001600160a01b038216907fe94479a9f7e1952cc78f2d6baab678adc1b772d936c6583def489e524cb6669290600090a250565b6000828211156111d557600080fd5b50900390565b60006110263384845b6001600160a01b0382166111f757600080fd5b6001600160a01b038316600090815260036020526040902054611220908263ffffffff6111c616565b6001600160a01b038085166000908152600360205260408082209390935590841681522054611255908263ffffffff610ff616565b6001600160a01b0380841660008181526003602090815260409182902094909455805185815290519193928716927fddf252ad1be2c89b69c2b068fc378daa952ba7f163c4a11628f55a4df523b3ef92918290030190a3505050565b61088881610ea4565b6001600160a01b0381166112cd57600080fd5b600080546040516001600160a01b03808516939216917f8be0079c531659141344cd1fd0a4f28419497f9722a3daafe3b4186f6b6457e091a3600080546001600160a01b0319166001600160a01b0392909216919091179055565b6001600160a01b03811661133b57600080fd5b6113458282610e6f565b61134e57600080fd5b6001600160a01b0316600090815260209190915260409020805460ff19169055565b6001600160a01b03811661138357600080fd5b61138d8282610e6f565b1561139757600080fd5b6001600160a01b0316600090815260209190915260409020805460ff19166001179055565b6007546113d7826113cb610794565b9063ffffffff610ff616565b11156113e257600080fd5b610abe828261158d565b6001600160a01b0382166113ff57600080fd5b600554611412908263ffffffff6111c616565b6005556001600160a01b03821660009081526003602052604090205461143e908263ffffffff6111c616565b6001600160a01b0383166000818152600360209081526040808320949094558351858152935191937fddf252ad1be2c89b69c2b068fc378daa952ba7f163c4a11628f55a4df523b3ef929081900390910190a35050565b6001600160a01b03821660009081526004602090815260408083203384529091529020546114c9908263ffffffff6111c616565b6001600160a01b03831660009081526004602090815260408083203384529091529020556114f782826113ec565b6001600160a01b038216600081815260046020908152604080832033808552908352928190205481519081529051929392600080516020611684833981519152929181900390910190a35050565b61155660018263ffffffff61137016565b6040516001600160a01b038216907f6ef188d34b8fac4126790bd81059831348a92504fa4f99a97c9958a1749c63bc90600090a250565b6001600160a01b0382166115a057600080fd5b6005546115b3908263ffffffff610ff616565b6005556001600160a01b0382166000908152600360205260409020546115df908263ffffffff610ff616565b6001600160a01b03831660008181526003602090815260408083209490945583518581529351929391927fddf252ad1be2c89b69c2b068fc378daa952ba7f163c4a11628f55a4df523b3ef9281900390910190a3505056fe427579696e6720696e766573746f72206973206e6f7420616c6c6f77656420746f2062757953656c6c696e6720696e766573746f72206973206e6f7420616c6c6f77656420746f2073656c6c8c5be1e5ebec7d5bd14f71427d1e84f3dd0314c0f7b2291e5b200ac8c7c3b925a165627a7a7230582063ce7125c285f2ace6ca2193d7185215cf35a8109c438b6c958bb303302b2fcc0029",
  "source": "pragma solidity ^0.5.7;\n\nimport \"../WhiteListToken.sol\";\n\n/**\n * A testable version for WhiteListToken\n */\ncontract WhiteListTokenTestable is WhiteListToken{\n\n  constructor(uint256 cap) WhiteListToken(cap) public {\n  }\n\n  function test_canInvestorBuy(address _investorAddress)  public view returns (bool){\n    return super.canInvestorBuy(_investorAddress);\n  }\n\n  function test_canInvestorSell(address _investorAddress) public view returns (bool){\n    return super.canInvestorSell(_investorAddress);\n  }\n\n}\n",
  "sourcePath": "C:/Users/Noam/BCS/stellero/Dev/StellerroToken/contracts/testables/WhiteListTokenTestable.sol",
  "compiler": {
    "name": "solc",
    "version": "0.5.8+commit.23d335f2.Emscripten.clang"
  },
  "schemaVersion": "3.0.11",
  "updatedAt": "2019-07-01T13:17:31.984Z",
  "devdoc": {
    "methods": {
      "addKYCAdmin(address)": {
        "params": {
          "account": "the address to add"
        }
      },
      "allowance(address,address)": {
        "details": "Function to check the amount of tokens that an owner allowed to a spender.",
        "params": {
          "owner": "address The address which owns the funds.",
          "spender": "address The address which will spend the funds."
        },
        "return": "A uint256 specifying the amount of tokens still available for the spender."
      },
      "approve(address,uint256)": {
        "details": "Approve the passed address to spend the specified amount of tokens on behalf of msg.sender. Beware that changing an allowance with this method brings the risk that someone may use both the old and the new allowance by unfortunate transaction ordering. One possible solution to mitigate this race condition is to first reduce the spender's allowance to 0 and set the desired value afterwards: https://github.com/ethereum/EIPs/issues/20#issuecomment-263524729",
        "params": {
          "spender": "The address which will spend the funds.",
          "value": "The amount of tokens to be spent."
        }
      },
      "balanceOf(address)": {
        "details": "Gets the balance of the specified address.",
        "params": {
          "owner": "The address to query the balance of."
        },
        "return": "An uint256 representing the amount owned by the passed address."
      },
      "burn(uint256)": {
        "details": "Burns a specific amount of tokens.",
        "params": {
          "value": "The amount of token to be burned."
        }
      },
      "burnFrom(address,uint256)": {
        "details": "Burns a specific amount of tokens from the target address and decrements allowance",
        "params": {
          "from": "address The address which you want to send tokens from",
          "value": "uint256 The amount of token to be burned"
        }
      },
      "cap()": {
        "return": "the cap for the token minting."
      },
      "decreaseAllowance(address,uint256)": {
        "details": "Decrease the amount of tokens that an owner allowed to a spender. approve should be called when allowed_[_spender] == 0. To decrement allowed value is better to use this function to avoid 2 calls (and wait until the first transaction is mined) From MonolithDAO Token.sol Emits an Approval event.",
        "params": {
          "spender": "The address which will spend the funds.",
          "subtractedValue": "The amount of tokens to decrease the allowance by."
        }
      },
      "finishMinting()": {
        "details": "Function to stop minting new tokens.",
        "return": "True if the operation was successful."
      },
      "increaseAllowance(address,uint256)": {
        "details": "Increase the amount of tokens that an owner allowed to a spender. approve should be called when allowed_[_spender] == 0. To increment allowed value is better to use this function to avoid 2 calls (and wait until the first transaction is mined) From MonolithDAO Token.sol Emits an Approval event.",
        "params": {
          "addedValue": "The amount of tokens to increase the allowance by.",
          "spender": "The address which will spend the funds."
        }
      },
      "isFreeInvestor(address)": {
        "params": {
          "investorAddress": "the investor address"
        }
      },
      "isOwner()": {
        "return": "true if `msg.sender` is the owner of the contract."
      },
      "owner()": {
        "return": "the address of the owner."
      },
      "pause()": {
        "details": "called by the owner to pause, triggers stopped state"
      },
      "paused()": {
        "return": "true if the contract is paused, false otherwise."
      },
      "removeKYCAdmin(address)": {
        "params": {
          "account": "the address to remove"
        }
      },
      "renounceOwnership()": {
        "details": "Allows the current owner to relinquish control of the contract."
      },
      "restoreTokens(address,address)": {
        "details": "restore tokens from one address to another. to use only in case a user cannot access its token.",
        "params": {
          "from": "address The old user's address",
          "to": "address The new user's address"
        }
      },
      "totalSupply()": {
        "details": "Total number of tokens in existence"
      },
      "transfer(address,uint256)": {
        "details": "Transfer token for a specified address",
        "params": {
          "to": "The address to transfer to.",
          "value": "The amount to be transferred."
        }
      },
      "transferFrom(address,address,uint256)": {
        "details": "Transfer tokens from one address to another",
        "params": {
          "from": "address The address which you want to send tokens from",
          "to": "address The address which you want to transfer to",
          "value": "uint256 the amount of tokens to be transferred"
        }
      },
      "transferOwnership(address)": {
        "details": "Allows the current owner to transfer control of the contract to a newOwner.",
        "params": {
          "newOwner": "The address to transfer ownership to."
        }
      },
      "unpause()": {
        "details": "called by the owner to unpause, returns to normal state"
      }
    }
  },
  "userdoc": {
    "methods": {
      "addKYCAdmin(address)": {
        "notice": "Add a kyc admin"
      },
      "isFreeInvestor(address)": {
        "notice": "Check if the investor is KYC approved and also accredited"
      },
      "removeKYCAdmin(address)": {
        "notice": "Remove a kyc admin"
      },
      "renounceOwnership()": {
        "notice": "Renouncing to ownership will leave the contract without an owner. It will not be possible to call the functions with the `onlyOwner` modifier anymore."
      }
    },
    "notice": "A testable version for WhiteListToken"
  }
}