{
  "contractName": "WhiteListTokenTestable",
  "abi": [
    {
      "constant": true,
      "inputs": [],
      "name": "mintingFinished",
      "outputs": [
        {
          "name": "",
          "type": "bool"
        }
      ],
      "payable": false,
      "stateMutability": "view",
      "type": "function"
    },
    {
      "constant": false,
      "inputs": [
        {
          "name": "spender",
          "type": "address"
        },
        {
          "name": "value",
          "type": "uint256"
        }
      ],
      "name": "approve",
      "outputs": [
        {
          "name": "",
          "type": "bool"
        }
      ],
      "payable": false,
      "stateMutability": "nonpayable",
      "type": "function"
    },
    {
      "constant": true,
      "inputs": [
        {
          "name": "account",
          "type": "address"
        }
      ],
      "name": "isKYCAdmin",
      "outputs": [
        {
          "name": "",
          "type": "bool"
        }
      ],
      "payable": false,
      "stateMutability": "view",
      "type": "function"
    },
    {
      "constant": false,
      "inputs": [],
      "name": "renounceKYCAdmin",
      "outputs": [],
      "payable": false,
      "stateMutability": "nonpayable",
      "type": "function"
    },
    {
      "constant": true,
      "inputs": [],
      "name": "totalSupply",
      "outputs": [
        {
          "name": "",
          "type": "uint256"
        }
      ],
      "payable": false,
      "stateMutability": "view",
      "type": "function"
    },
    {
      "constant": false,
      "inputs": [
        {
          "name": "from",
          "type": "address"
        },
        {
          "name": "to",
          "type": "address"
        },
        {
          "name": "value",
          "type": "uint256"
        }
      ],
      "name": "transferFrom",
      "outputs": [
        {
          "name": "",
          "type": "bool"
        }
      ],
      "payable": false,
      "stateMutability": "nonpayable",
      "type": "function"
    },
    {
      "constant": false,
      "inputs": [
        {
          "name": "account",
          "type": "address"
        }
      ],
      "name": "addKYClisted",
      "outputs": [],
      "payable": false,
      "stateMutability": "nonpayable",
      "type": "function"
    },
    {
      "constant": true,
      "inputs": [],
      "name": "cap",
      "outputs": [
        {
          "name": "",
          "type": "uint256"
        }
      ],
      "payable": false,
      "stateMutability": "view",
      "type": "function"
    },
    {
      "constant": false,
      "inputs": [
        {
          "name": "spender",
          "type": "address"
        },
        {
          "name": "addedValue",
          "type": "uint256"
        }
      ],
      "name": "increaseAllowance",
      "outputs": [
        {
          "name": "",
          "type": "bool"
        }
      ],
      "payable": false,
      "stateMutability": "nonpayable",
      "type": "function"
    },
    {
      "constant": false,
      "inputs": [
        {
          "name": "to",
          "type": "address"
        },
        {
          "name": "value",
          "type": "uint256"
        }
      ],
      "name": "mint",
      "outputs": [
        {
          "name": "",
          "type": "bool"
        }
      ],
      "payable": false,
      "stateMutability": "nonpayable",
      "type": "function"
    },
    {
      "constant": false,
      "inputs": [
        {
          "name": "value",
          "type": "uint256"
        }
      ],
      "name": "burn",
      "outputs": [],
      "payable": false,
      "stateMutability": "nonpayable",
      "type": "function"
    },
    {
      "constant": false,
      "inputs": [],
      "name": "renounceKYClisted",
      "outputs": [],
      "payable": false,
      "stateMutability": "nonpayable",
      "type": "function"
    },
    {
      "constant": true,
      "inputs": [
        {
          "name": "owner",
          "type": "address"
        }
      ],
      "name": "balanceOf",
      "outputs": [
        {
          "name": "",
          "type": "uint256"
        }
      ],
      "payable": false,
      "stateMutability": "view",
      "type": "function"
    },
    {
      "constant": false,
      "inputs": [],
      "name": "renounceOwnership",
      "outputs": [],
      "payable": false,
      "stateMutability": "nonpayable",
      "type": "function"
    },
    {
      "constant": false,
      "inputs": [
        {
          "name": "account",
          "type": "address"
        }
      ],
      "name": "removeKYClisted",
      "outputs": [],
      "payable": false,
      "stateMutability": "nonpayable",
      "type": "function"
    },
    {
      "constant": false,
      "inputs": [
        {
          "name": "from",
          "type": "address"
        },
        {
          "name": "value",
          "type": "uint256"
        }
      ],
      "name": "burnFrom",
      "outputs": [],
      "payable": false,
      "stateMutability": "nonpayable",
      "type": "function"
    },
    {
      "constant": false,
      "inputs": [],
      "name": "finishMinting",
      "outputs": [
        {
          "name": "",
          "type": "bool"
        }
      ],
      "payable": false,
      "stateMutability": "nonpayable",
      "type": "function"
    },
    {
      "constant": false,
      "inputs": [
        {
          "name": "to",
          "type": "address"
        },
        {
          "name": "value",
          "type": "uint256"
        }
      ],
      "name": "approveAndMint",
      "outputs": [
        {
          "name": "",
          "type": "bool"
        }
      ],
      "payable": false,
      "stateMutability": "nonpayable",
      "type": "function"
    },
    {
      "constant": true,
      "inputs": [],
      "name": "owner",
      "outputs": [
        {
          "name": "",
          "type": "address"
        }
      ],
      "payable": false,
      "stateMutability": "view",
      "type": "function"
    },
    {
      "constant": true,
      "inputs": [],
      "name": "isOwner",
      "outputs": [
        {
          "name": "",
          "type": "bool"
        }
      ],
      "payable": false,
      "stateMutability": "view",
      "type": "function"
    },
    {
      "constant": false,
      "inputs": [
        {
          "name": "account",
          "type": "address"
        }
      ],
      "name": "addKYCAdmin",
      "outputs": [],
      "payable": false,
      "stateMutability": "nonpayable",
      "type": "function"
    },
    {
      "constant": false,
      "inputs": [
        {
          "name": "account",
          "type": "address"
        }
      ],
      "name": "addMinter",
      "outputs": [],
      "payable": false,
      "stateMutability": "nonpayable",
      "type": "function"
    },
    {
      "constant": false,
      "inputs": [],
      "name": "renounceMinter",
      "outputs": [],
      "payable": false,
      "stateMutability": "nonpayable",
      "type": "function"
    },
    {
      "constant": true,
      "inputs": [
        {
          "name": "account",
          "type": "address"
        }
      ],
      "name": "isKYClisted",
      "outputs": [
        {
          "name": "",
          "type": "bool"
        }
      ],
      "payable": false,
      "stateMutability": "view",
      "type": "function"
    },
    {
      "constant": false,
      "inputs": [
        {
          "name": "spender",
          "type": "address"
        },
        {
          "name": "subtractedValue",
          "type": "uint256"
        }
      ],
      "name": "decreaseAllowance",
      "outputs": [
        {
          "name": "",
          "type": "bool"
        }
      ],
      "payable": false,
      "stateMutability": "nonpayable",
      "type": "function"
    },
    {
      "constant": false,
      "inputs": [
        {
          "name": "to",
          "type": "address"
        },
        {
          "name": "value",
          "type": "uint256"
        }
      ],
      "name": "transfer",
      "outputs": [
        {
          "name": "",
          "type": "bool"
        }
      ],
      "payable": false,
      "stateMutability": "nonpayable",
      "type": "function"
    },
    {
      "constant": true,
      "inputs": [
        {
          "name": "account",
          "type": "address"
        }
      ],
      "name": "isMinter",
      "outputs": [
        {
          "name": "",
          "type": "bool"
        }
      ],
      "payable": false,
      "stateMutability": "view",
      "type": "function"
    },
    {
      "constant": true,
      "inputs": [
        {
          "name": "investorAddress",
          "type": "address"
        }
      ],
      "name": "isFreeInvestor",
      "outputs": [
        {
          "name": "",
          "type": "bool"
        }
      ],
      "payable": false,
      "stateMutability": "view",
      "type": "function"
    },
    {
      "constant": false,
      "inputs": [
        {
          "name": "from",
          "type": "address"
        },
        {
          "name": "to",
          "type": "address"
        }
      ],
      "name": "restoreTokens",
      "outputs": [
        {
          "name": "",
          "type": "bool"
        }
      ],
      "payable": false,
      "stateMutability": "nonpayable",
      "type": "function"
    },
    {
      "constant": false,
      "inputs": [
        {
          "name": "account",
          "type": "address"
        }
      ],
      "name": "removeKYCAdmin",
      "outputs": [],
      "payable": false,
      "stateMutability": "nonpayable",
      "type": "function"
    },
    {
      "constant": true,
      "inputs": [
        {
          "name": "owner",
          "type": "address"
        },
        {
          "name": "spender",
          "type": "address"
        }
      ],
      "name": "allowance",
      "outputs": [
        {
          "name": "",
          "type": "uint256"
        }
      ],
      "payable": false,
      "stateMutability": "view",
      "type": "function"
    },
    {
      "constant": false,
      "inputs": [
        {
          "name": "newOwner",
          "type": "address"
        }
      ],
      "name": "transferOwnership",
      "outputs": [],
      "payable": false,
      "stateMutability": "nonpayable",
      "type": "function"
    },
    {
      "inputs": [
        {
          "name": "cap",
          "type": "uint256"
        }
      ],
      "payable": false,
      "stateMutability": "nonpayable",
      "type": "constructor"
    },
    {
      "anonymous": false,
      "inputs": [],
      "name": "MintFinished",
      "type": "event"
    },
    {
      "anonymous": false,
      "inputs": [
        {
          "indexed": true,
          "name": "from",
          "type": "address"
        },
        {
          "indexed": true,
          "name": "to",
          "type": "address"
        },
        {
          "indexed": false,
          "name": "value",
          "type": "uint256"
        }
      ],
      "name": "Restore",
      "type": "event"
    },
    {
      "anonymous": false,
      "inputs": [
        {
          "indexed": true,
          "name": "account",
          "type": "address"
        }
      ],
      "name": "MinterAdded",
      "type": "event"
    },
    {
      "anonymous": false,
      "inputs": [
        {
          "indexed": true,
          "name": "account",
          "type": "address"
        }
      ],
      "name": "MinterRemoved",
      "type": "event"
    },
    {
      "anonymous": false,
      "inputs": [
        {
          "indexed": true,
          "name": "from",
          "type": "address"
        },
        {
          "indexed": true,
          "name": "to",
          "type": "address"
        },
        {
          "indexed": false,
          "name": "value",
          "type": "uint256"
        }
      ],
      "name": "Transfer",
      "type": "event"
    },
    {
      "anonymous": false,
      "inputs": [
        {
          "indexed": true,
          "name": "owner",
          "type": "address"
        },
        {
          "indexed": true,
          "name": "spender",
          "type": "address"
        },
        {
          "indexed": false,
          "name": "value",
          "type": "uint256"
        }
      ],
      "name": "Approval",
      "type": "event"
    },
    {
      "anonymous": false,
      "inputs": [
        {
          "indexed": true,
          "name": "account",
          "type": "address"
        }
      ],
      "name": "KYClistedAdded",
      "type": "event"
    },
    {
      "anonymous": false,
      "inputs": [
        {
          "indexed": true,
          "name": "account",
          "type": "address"
        }
      ],
      "name": "KYClistedRemoved",
      "type": "event"
    },
    {
      "anonymous": false,
      "inputs": [
        {
          "indexed": true,
          "name": "account",
          "type": "address"
        }
      ],
      "name": "KYCAdminAdded",
      "type": "event"
    },
    {
      "anonymous": false,
      "inputs": [
        {
          "indexed": true,
          "name": "account",
          "type": "address"
        }
      ],
      "name": "KYCAdminRemoved",
      "type": "event"
    },
    {
      "anonymous": false,
      "inputs": [
        {
          "indexed": true,
          "name": "previousOwner",
          "type": "address"
        },
        {
          "indexed": true,
          "name": "newOwner",
          "type": "address"
        }
      ],
      "name": "OwnershipTransferred",
      "type": "event"
    },
    {
      "constant": true,
      "inputs": [
        {
          "name": "_investorAddress",
          "type": "address"
        }
      ],
      "name": "test_canInvestorBuy",
      "outputs": [
        {
          "name": "",
          "type": "bool"
        }
      ],
      "payable": false,
      "stateMutability": "view",
      "type": "function"
    },
    {
      "constant": true,
      "inputs": [
        {
          "name": "_investorAddress",
          "type": "address"
        }
      ],
      "name": "test_canInvestorSell",
      "outputs": [
        {
          "name": "",
          "type": "bool"
        }
      ],
      "payable": false,
      "stateMutability": "view",
      "type": "function"
    }
  ],
  "bytecode": "0x60806040526008805460ff191690553480156200001b57600080fd5b5060405160208062001661833981018060405260208110156200003d57600080fd5b5051600080546001600160a01b0319163317808255604051839283926001600160a01b0316917f8be0079c531659141344cd1fd0a4f28419497f9722a3daafe3b4186f6b6457e0908290a36200009933620000c460201b60201c565b620000aa336200011660201b60201c565b60008111620000b857600080fd5b60075550620001f49050565b620000df8160016200016860201b620010fe1790919060201c565b6040516001600160a01b038216907f6ef188d34b8fac4126790bd81059831348a92504fa4f99a97c9958a1749c63bc90600090a250565b620001318160066200016860201b620010fe1790919060201c565b6040516001600160a01b038216907f6ae172837ea30b801fbfcdd4108aa1d5bf8ff775444fd70256b44e6bf3dfc3f690600090a250565b6001600160a01b0381166200017c57600080fd5b6200018e8282620001be60201b60201c565b156200019957600080fd5b6001600160a01b0316600090815260209190915260409020805460ff19166001179055565b60006001600160a01b038216620001d457600080fd5b506001600160a01b03166000908152602091909152604090205460ff1690565b61145d80620002046000396000f3fe608060405234801561001057600080fd5b50600436106102065760003560e01c80637d64bcb41161011a578063a457c2d7116100ad578063c6416f4c1161007c578063c6416f4c146105a2578063d92a6cf6146105d0578063dd62ed3e146105f6578063f2453eee146102d3578063f2fde38b1461062457610206565b8063a457c2d7146104fe578063a9059cbb1461052a578063aa271e1a14610556578063c2282f771461057c57610206565b80638fd60004116100e95780638fd6000414610484578063983b2d56146104aa57806398650275146104d0578063a2d5027a146104d857610206565b80637d64bcb4146104245780638aa0ddc81461042c5780638da5cb5b146104585780638f32d59b1461047c57610206565b8063355274ea1161019d5780635b4e3f3d1161016c5780635b4e3f3d1461039c57806370a08231146103a4578063715018a6146103ca5780637696f416146103d257806379cc6790146103f857610206565b8063355274ea1461031f578063395093511461032757806340c10f191461035357806342966c681461037f57610206565b806318160ddd116101d957806318160ddd1461028357806323b872dd1461029d5780632ab17c49146102d35780632c101922146102f957610206565b806305d2035b1461020b578063095ea7b31461022757806312f25343146102535780631548dbc814610279575b600080fd5b61021361064a565b604080519115158252519081900360200190f35b6102136004803603604081101561023d57600080fd5b506001600160a01b038135169060200135610653565b6102136004803603602081101561026957600080fd5b50356001600160a01b03166106bd565b6102816106d6565b005b61028b6106e1565b60408051918252519081900360200190f35b610213600480360360608110156102b357600080fd5b506001600160a01b038135811691602081013590911690604001356106e7565b610213600480360360208110156102e957600080fd5b50356001600160a01b031661079a565b6102816004803603602081101561030f57600080fd5b50356001600160a01b03166107a5565b61028b6107c3565b6102136004803603604081101561033d57600080fd5b506001600160a01b0381351690602001356107c9565b6102136004803603604081101561036957600080fd5b506001600160a01b038135169060200135610865565b6102816004803603602081101561039557600080fd5b503561089d565b6102816108b7565b61028b600480360360208110156103ba57600080fd5b50356001600160a01b03166108c0565b6102816108db565b610281600480360360208110156103e857600080fd5b50356001600160a01b0316610936565b6102816004803603604081101561040e57600080fd5b506001600160a01b038135169060200135610951565b610213610970565b6102136004803603604081101561044257600080fd5b506001600160a01b0381351690602001356109cf565b6104606109fc565b604080516001600160a01b039092168252519081900360200190f35b610213610a0b565b6102816004803603602081101561049a57600080fd5b50356001600160a01b0316610a1c565b610281600480360360208110156104c057600080fd5b50356001600160a01b0316610a36565b610281610a51565b610213600480360360208110156104ee57600080fd5b50356001600160a01b0316610a5a565b6102136004803603604081101561051457600080fd5b506001600160a01b038135169060200135610a6d565b6102136004803603604081101561054057600080fd5b506001600160a01b038135169060200135610ab6565b6102136004803603602081101561056c57600080fd5b50356001600160a01b0316610b67565b6102136004803603602081101561059257600080fd5b50356001600160a01b0316610b7a565b610213600480360360408110156105b857600080fd5b506001600160a01b0381358116916020013516610b85565b610281600480360360208110156105e657600080fd5b50356001600160a01b0316610c2e565b61028b6004803603604081101561060c57600080fd5b506001600160a01b0381358116916020013516610c48565b6102816004803603602081101561063a57600080fd5b50356001600160a01b0316610c73565b60085460ff1681565b60006001600160a01b03831661066857600080fd5b3360008181526004602090815260408083206001600160a01b0388168085529083529281902086905580518681529051929392600080516020611412833981519152929181900390910190a350600192915050565b60006106d060018363ffffffff610c8d16565b92915050565b6106df33610cc2565b565b60055490565b60085460009060ff166106f957600080fd5b61070283610d0a565b61074057604051600160e51b62461bcd0281526004018080602001828103825260258152602001806113c66025913960400191505060405180910390fd5b61074984610d0a565b61078757604051600160e51b62461bcd0281526004018080602001828103825260278152602001806113eb6027913960400191505060405180910390fd5b610792848484610d15565b949350505050565b60006106d082610d0a565b6107ae336106bd565b6107b757600080fd5b6107c081610dcc565b50565b60075490565b60006001600160a01b0383166107de57600080fd5b3360009081526004602090815260408083206001600160a01b0387168452909152902054610812908363ffffffff610e1416565b3360008181526004602090815260408083206001600160a01b038916808552908352928190208590558051948552519193600080516020611412833981519152929081900390910190a350600192915050565b600061087033610b67565b61087957600080fd5b60085460ff161561088957600080fd5b6108938383610e26565b5060019392505050565b6108a5610a0b565b6108ae57600080fd5b6107c081610e4d565b6106df33610e57565b6001600160a01b031660009081526003602052604090205490565b6108e3610a0b565b6108ec57600080fd5b600080546040516001600160a01b03909116907f8be0079c531659141344cd1fd0a4f28419497f9722a3daafe3b4186f6b6457e0908390a3600080546001600160a01b0319169055565b61093f336106bd565b61094857600080fd5b6107c081610e57565b610959610a0b565b61096257600080fd5b61096c8282610e9f565b5050565b600061097a610a0b565b61098357600080fd5b60085460ff161561099357600080fd5b6008805460ff191660011790556040517fae5184fba832cb2b1f702aca6117b8d265eaf03ad33eb133f19dde0f5920fa0890600090a150600190565b60006109da33610b67565b6109e357600080fd5b60085460ff16156109f357600080fd5b610889836107a5565b6000546001600160a01b031690565b6000546001600160a01b0316331490565b610a24610a0b565b610a2d57600080fd5b6107c081610ea9565b610a3f33610b67565b610a4857600080fd5b6107c081610ec4565b6106df33610f0c565b60006106d060028363ffffffff610c8d16565b60006001600160a01b038316610a8257600080fd5b3360009081526004602090815260408083206001600160a01b0387168452909152902054610812908363ffffffff610f5416565b60085460009060ff16610ac857600080fd5b610ad183610d0a565b610b0f57604051600160e51b62461bcd0281526004018080602001828103825260258152602001806113c66025913960400191505060405180910390fd5b610b1833610d0a565b610b5657604051600160e51b62461bcd0281526004018080602001828103825260278152602001806113eb6027913960400191505060405180910390fd5b610b608383610f69565b9392505050565b60006106d060068363ffffffff610c8d16565b60006106d082610a5a565b6000610b8f610a0b565b610b9857600080fd5b6001600160a01b038216610bab57600080fd5b610bb482610a5a565b610bc157610bc1826107a5565b6000610bcc846108c0565b9050610bd9848483610f72565b826001600160a01b0316846001600160a01b03167f8d517738b620ddd4757b2c72628ad2ee2e182d8eadaceb727477e0b661e0afad836040518082815260200191505060405180910390a35060019392505050565b610c36610a0b565b610c3f57600080fd5b6107c08161103f565b6001600160a01b03918216600090815260046020908152604080832093909416825291909152205490565b610c7b610a0b565b610c8457600080fd5b6107c081611048565b60006001600160a01b038216610ca257600080fd5b506001600160a01b03166000908152602091909152604090205460ff1690565b610cd360018263ffffffff6110b616565b6040516001600160a01b038216907fe989c3ea74e8447b86355ca10e7b910a5ea9931330517c33e3002727f5e95ee890600090a250565b60006106d082610b7a565b6001600160a01b0383166000908152600460209081526040808320338452909152812054610d49908363ffffffff610f5416565b6001600160a01b0385166000908152600460209081526040808320338452909152902055610d78848484610f72565b6001600160a01b038416600081815260046020908152604080832033808552908352928190205481519081529051929392600080516020611412833981519152929181900390910190a35060019392505050565b610ddd60028263ffffffff6110fe16565b6040516001600160a01b038216907f5a85c934d044d4af54e45ef3efa70919b2301fe806a7b570e09d7e0f90a4445a90600090a250565b600082820183811015610b6057600080fd5b6000610e3133610b67565b610e3a57600080fd5b610e44838361114a565b50600192915050565b6107c0338261117a565b610e6860028263ffffffff6110b616565b6040516001600160a01b038216907fbc6a411073357cff5bee0c71e7722c8fd47b5a40591adcedeaac84bd10c0736890600090a250565b61096c8282611223565b610eb2336106bd565b610ebb57600080fd5b6107c0816112d3565b610ed560068263ffffffff6110fe16565b6040516001600160a01b038216907f6ae172837ea30b801fbfcdd4108aa1d5bf8ff775444fd70256b44e6bf3dfc3f690600090a250565b610f1d60068263ffffffff6110b616565b6040516001600160a01b038216907fe94479a9f7e1952cc78f2d6baab678adc1b772d936c6583def489e524cb6669290600090a250565b600082821115610f6357600080fd5b50900390565b6000610e443384845b6001600160a01b038216610f8557600080fd5b6001600160a01b038316600090815260036020526040902054610fae908263ffffffff610f5416565b6001600160a01b038085166000908152600360205260408082209390935590841681522054610fe3908263ffffffff610e1416565b6001600160a01b0380841660008181526003602090815260409182902094909455805185815290519193928716927fddf252ad1be2c89b69c2b068fc378daa952ba7f163c4a11628f55a4df523b3ef92918290030190a3505050565b6107c081610cc2565b6001600160a01b03811661105b57600080fd5b600080546040516001600160a01b03808516939216917f8be0079c531659141344cd1fd0a4f28419497f9722a3daafe3b4186f6b6457e091a3600080546001600160a01b0319166001600160a01b0392909216919091179055565b6001600160a01b0381166110c957600080fd5b6110d38282610c8d565b6110dc57600080fd5b6001600160a01b0316600090815260209190915260409020805460ff19169055565b6001600160a01b03811661111157600080fd5b61111b8282610c8d565b1561112557600080fd5b6001600160a01b0316600090815260209190915260409020805460ff19166001179055565b600754611165826111596106e1565b9063ffffffff610e1416565b111561117057600080fd5b61096c828261131b565b6001600160a01b03821661118d57600080fd5b6005546111a0908263ffffffff610f5416565b6005556001600160a01b0382166000908152600360205260409020546111cc908263ffffffff610f5416565b6001600160a01b0383166000818152600360209081526040808320949094558351858152935191937fddf252ad1be2c89b69c2b068fc378daa952ba7f163c4a11628f55a4df523b3ef929081900390910190a35050565b6001600160a01b0382166000908152600460209081526040808320338452909152902054611257908263ffffffff610f5416565b6001600160a01b0383166000908152600460209081526040808320338452909152902055611285828261117a565b6001600160a01b038216600081815260046020908152604080832033808552908352928190205481519081529051929392600080516020611412833981519152929181900390910190a35050565b6112e460018263ffffffff6110fe16565b6040516001600160a01b038216907f6ef188d34b8fac4126790bd81059831348a92504fa4f99a97c9958a1749c63bc90600090a250565b6001600160a01b03821661132e57600080fd5b600554611341908263ffffffff610e1416565b6005556001600160a01b03821660009081526003602052604090205461136d908263ffffffff610e1416565b6001600160a01b03831660008181526003602090815260408083209490945583518581529351929391927fddf252ad1be2c89b69c2b068fc378daa952ba7f163c4a11628f55a4df523b3ef9281900390910190a3505056fe427579696e6720696e766573746f72206973206e6f7420616c6c6f77656420746f2062757953656c6c696e6720696e766573746f72206973206e6f7420616c6c6f77656420746f2073656c6c8c5be1e5ebec7d5bd14f71427d1e84f3dd0314c0f7b2291e5b200ac8c7c3b925a165627a7a72305820a0f2f32bda344f05a15f41c76b3023fc52a4f706b86f66cabef4dff1ecd060230029",
  "source": "pragma solidity ^0.5.7;\n\nimport \"../WhiteListToken.sol\";\n\n/**\n * A testable version for WhiteListToken\n */\ncontract WhiteListTokenTestable is WhiteListToken{\n\n  constructor(uint256 cap) WhiteListToken(cap) public {\n  }\n\n  function test_canInvestorBuy(address _investorAddress)  public view returns (bool){\n    return super.canInvestorBuy(_investorAddress);\n  }\n\n  function test_canInvestorSell(address _investorAddress) public view returns (bool){\n    return super.canInvestorSell(_investorAddress);\n  }\n\n}\n",
  "sourcePath": "C:/Users/Noam/BCS/stellero/Dev/StellerroToken/contracts/testables/WhiteListTokenTestable.sol",
  "compiler": {
    "name": "solc",
    "version": "0.5.8+commit.23d335f2.Emscripten.clang"
  },
  "schemaVersion": "3.0.11",
  "updatedAt": "2019-06-29T19:45:46.127Z",
  "devdoc": {
    "methods": {
      "addKYCAdmin(address)": {
        "params": {
          "account": "the address to add"
        }
      },
      "allowance(address,address)": {
        "details": "Function to check the amount of tokens that an owner allowed to a spender.",
        "params": {
          "owner": "address The address which owns the funds.",
          "spender": "address The address which will spend the funds."
        },
        "return": "A uint256 specifying the amount of tokens still available for the spender."
      },
      "approve(address,uint256)": {
        "details": "Approve the passed address to spend the specified amount of tokens on behalf of msg.sender. Beware that changing an allowance with this method brings the risk that someone may use both the old and the new allowance by unfortunate transaction ordering. One possible solution to mitigate this race condition is to first reduce the spender's allowance to 0 and set the desired value afterwards: https://github.com/ethereum/EIPs/issues/20#issuecomment-263524729",
        "params": {
          "spender": "The address which will spend the funds.",
          "value": "The amount of tokens to be spent."
        }
      },
      "balanceOf(address)": {
        "details": "Gets the balance of the specified address.",
        "params": {
          "owner": "The address to query the balance of."
        },
        "return": "An uint256 representing the amount owned by the passed address."
      },
      "burn(uint256)": {
        "details": "Burns a specific amount of tokens.",
        "params": {
          "value": "The amount of token to be burned."
        }
      },
      "burnFrom(address,uint256)": {
        "details": "Burns a specific amount of tokens from the target address and decrements allowance",
        "params": {
          "from": "address The address which you want to send tokens from",
          "value": "uint256 The amount of token to be burned"
        }
      },
      "cap()": {
        "return": "the cap for the token minting."
      },
      "decreaseAllowance(address,uint256)": {
        "details": "Decrease the amount of tokens that an owner allowed to a spender. approve should be called when allowed_[_spender] == 0. To decrement allowed value is better to use this function to avoid 2 calls (and wait until the first transaction is mined) From MonolithDAO Token.sol Emits an Approval event.",
        "params": {
          "spender": "The address which will spend the funds.",
          "subtractedValue": "The amount of tokens to decrease the allowance by."
        }
      },
      "finishMinting()": {
        "details": "Function to stop minting new tokens.",
        "return": "True if the operation was successful."
      },
      "increaseAllowance(address,uint256)": {
        "details": "Increase the amount of tokens that an owner allowed to a spender. approve should be called when allowed_[_spender] == 0. To increment allowed value is better to use this function to avoid 2 calls (and wait until the first transaction is mined) From MonolithDAO Token.sol Emits an Approval event.",
        "params": {
          "addedValue": "The amount of tokens to increase the allowance by.",
          "spender": "The address which will spend the funds."
        }
      },
      "isFreeInvestor(address)": {
        "params": {
          "investorAddress": "the investor address"
        }
      },
      "isOwner()": {
        "return": "true if `msg.sender` is the owner of the contract."
      },
      "owner()": {
        "return": "the address of the owner."
      },
      "removeKYCAdmin(address)": {
        "params": {
          "account": "the address to remove"
        }
      },
      "renounceOwnership()": {
        "details": "Allows the current owner to relinquish control of the contract."
      },
      "restoreTokens(address,address)": {
        "details": "restore tokens from one address to another. to use only in case a user cannot access its token.",
        "params": {
          "from": "address The old user's address",
          "to": "address The new user's address"
        }
      },
      "totalSupply()": {
        "details": "Total number of tokens in existence"
      },
      "transfer(address,uint256)": {
        "details": "Transfer token for a specified address",
        "params": {
          "to": "The address to transfer to.",
          "value": "The amount to be transferred."
        }
      },
      "transferFrom(address,address,uint256)": {
        "details": "Transfer tokens from one address to another",
        "params": {
          "from": "address The address which you want to send tokens from",
          "to": "address The address which you want to transfer to",
          "value": "uint256 the amount of tokens to be transferred"
        }
      },
      "transferOwnership(address)": {
        "details": "Allows the current owner to transfer control of the contract to a newOwner.",
        "params": {
          "newOwner": "The address to transfer ownership to."
        }
      }
    }
  },
  "userdoc": {
    "methods": {
      "addKYCAdmin(address)": {
        "notice": "Add a kyc admin"
      },
      "isFreeInvestor(address)": {
        "notice": "Check if the investor is KYC approved and also accredited"
      },
      "removeKYCAdmin(address)": {
        "notice": "Remove a kyc admin"
      },
      "renounceOwnership()": {
        "notice": "Renouncing to ownership will leave the contract without an owner. It will not be possible to call the functions with the `onlyOwner` modifier anymore."
      }
    },
    "notice": "A testable version for WhiteListToken"
  }
}